{
  "contractName": "Pverse",
  "abi": [
    {
      "inputs": [
        {
          "internalType": "string",
          "name": "_name",
          "type": "string"
        },
        {
          "internalType": "string",
          "name": "_symbol",
          "type": "string"
        },
        {
          "internalType": "uint256",
          "name": "_cost",
          "type": "uint256"
        }
      ],
      "stateMutability": "nonpayable",
      "type": "constructor"
    },
    {
      "anonymous": false,
      "inputs": [
        {
          "indexed": true,
          "internalType": "address",
          "name": "owner",
          "type": "address"
        },
        {
          "indexed": true,
          "internalType": "address",
          "name": "approved",
          "type": "address"
        },
        {
          "indexed": true,
          "internalType": "uint256",
          "name": "tokenId",
          "type": "uint256"
        }
      ],
      "name": "Approval",
      "type": "event"
    },
    {
      "anonymous": false,
      "inputs": [
        {
          "indexed": true,
          "internalType": "address",
          "name": "owner",
          "type": "address"
        },
        {
          "indexed": true,
          "internalType": "address",
          "name": "operator",
          "type": "address"
        },
        {
          "indexed": false,
          "internalType": "bool",
          "name": "approved",
          "type": "bool"
        }
      ],
      "name": "ApprovalForAll",
      "type": "event"
    },
    {
      "anonymous": false,
      "inputs": [
        {
          "indexed": true,
          "internalType": "address",
          "name": "from",
          "type": "address"
        },
        {
          "indexed": true,
          "internalType": "address",
          "name": "to",
          "type": "address"
        },
        {
          "indexed": true,
          "internalType": "uint256",
          "name": "tokenId",
          "type": "uint256"
        }
      ],
      "name": "Transfer",
      "type": "event"
    },
    {
      "inputs": [
        {
          "internalType": "address",
          "name": "to",
          "type": "address"
        },
        {
          "internalType": "uint256",
          "name": "tokenId",
          "type": "uint256"
        }
      ],
      "name": "approve",
      "outputs": [],
      "stateMutability": "nonpayable",
      "type": "function"
    },
    {
      "inputs": [
        {
          "internalType": "address",
          "name": "owner",
          "type": "address"
        }
      ],
      "name": "balanceOf",
      "outputs": [
        {
          "internalType": "uint256",
          "name": "",
          "type": "uint256"
        }
      ],
      "stateMutability": "view",
      "type": "function",
      "constant": true
    },
    {
      "inputs": [
        {
          "internalType": "uint256",
          "name": "",
          "type": "uint256"
        }
      ],
      "name": "buildings",
      "outputs": [
        {
          "internalType": "string",
          "name": "name",
          "type": "string"
        },
        {
          "internalType": "address",
          "name": "owner",
          "type": "address"
        },
        {
          "internalType": "int256",
          "name": "posX",
          "type": "int256"
        },
        {
          "internalType": "int256",
          "name": "posY",
          "type": "int256"
        },
        {
          "internalType": "int256",
          "name": "posZ",
          "type": "int256"
        },
        {
          "internalType": "uint256",
          "name": "sizeX",
          "type": "uint256"
        },
        {
          "internalType": "uint256",
          "name": "sizeY",
          "type": "uint256"
        },
        {
          "internalType": "uint256",
          "name": "sizeZ",
          "type": "uint256"
        }
      ],
      "stateMutability": "view",
      "type": "function",
      "constant": true
    },
    {
      "inputs": [],
      "name": "cost",
      "outputs": [
        {
          "internalType": "uint256",
          "name": "",
          "type": "uint256"
        }
      ],
      "stateMutability": "view",
      "type": "function",
      "constant": true
    },
    {
      "inputs": [
        {
          "internalType": "uint256",
          "name": "tokenId",
          "type": "uint256"
        }
      ],
      "name": "getApproved",
      "outputs": [
        {
          "internalType": "address",
          "name": "",
          "type": "address"
        }
      ],
      "stateMutability": "view",
      "type": "function",
      "constant": true
    },
    {
      "inputs": [
        {
          "internalType": "address",
          "name": "owner",
          "type": "address"
        },
        {
          "internalType": "address",
          "name": "operator",
          "type": "address"
        }
      ],
      "name": "isApprovedForAll",
      "outputs": [
        {
          "internalType": "bool",
          "name": "",
          "type": "bool"
        }
      ],
      "stateMutability": "view",
      "type": "function",
      "constant": true
    },
    {
      "inputs": [],
      "name": "maxSupply",
      "outputs": [
        {
          "internalType": "uint256",
          "name": "",
          "type": "uint256"
        }
      ],
      "stateMutability": "view",
      "type": "function",
      "constant": true
    },
    {
      "inputs": [],
      "name": "name",
      "outputs": [
        {
          "internalType": "string",
          "name": "",
          "type": "string"
        }
      ],
      "stateMutability": "view",
      "type": "function",
      "constant": true
    },
    {
      "inputs": [
        {
          "internalType": "uint256",
          "name": "tokenId",
          "type": "uint256"
        }
      ],
      "name": "ownerOf",
      "outputs": [
        {
          "internalType": "address",
          "name": "",
          "type": "address"
        }
      ],
      "stateMutability": "view",
      "type": "function",
      "constant": true
    },
    {
      "inputs": [
        {
          "internalType": "address",
          "name": "operator",
          "type": "address"
        },
        {
          "internalType": "bool",
          "name": "approved",
          "type": "bool"
        }
      ],
      "name": "setApprovalForAll",
      "outputs": [],
      "stateMutability": "nonpayable",
      "type": "function"
    },
    {
      "inputs": [
        {
          "internalType": "bytes4",
          "name": "interfaceId",
          "type": "bytes4"
        }
      ],
      "name": "supportsInterface",
      "outputs": [
        {
          "internalType": "bool",
          "name": "",
          "type": "bool"
        }
      ],
      "stateMutability": "view",
      "type": "function",
      "constant": true
    },
    {
      "inputs": [],
      "name": "symbol",
      "outputs": [
        {
          "internalType": "string",
          "name": "",
          "type": "string"
        }
      ],
      "stateMutability": "view",
      "type": "function",
      "constant": true
    },
    {
      "inputs": [
        {
          "internalType": "uint256",
          "name": "tokenId",
          "type": "uint256"
        }
      ],
      "name": "tokenURI",
      "outputs": [
        {
          "internalType": "string",
          "name": "",
          "type": "string"
        }
      ],
      "stateMutability": "view",
      "type": "function",
      "constant": true
    },
    {
      "inputs": [],
      "name": "totalSupply",
      "outputs": [
        {
          "internalType": "uint256",
          "name": "",
          "type": "uint256"
        }
      ],
      "stateMutability": "view",
      "type": "function",
      "constant": true
    },
    {
      "inputs": [
        {
          "internalType": "uint256",
          "name": "_id",
          "type": "uint256"
        }
      ],
      "name": "mint",
      "outputs": [],
      "stateMutability": "payable",
      "type": "function",
      "payable": true
    },
    {
      "inputs": [
        {
          "internalType": "address",
          "name": "from",
          "type": "address"
        },
        {
          "internalType": "address",
          "name": "to",
          "type": "address"
        },
        {
          "internalType": "uint256",
          "name": "tokenId",
          "type": "uint256"
        }
      ],
      "name": "transferFrom",
      "outputs": [],
      "stateMutability": "nonpayable",
      "type": "function"
    },
    {
      "inputs": [
        {
          "internalType": "address",
          "name": "from",
          "type": "address"
        },
        {
          "internalType": "address",
          "name": "to",
          "type": "address"
        },
        {
          "internalType": "uint256",
          "name": "tokenId",
          "type": "uint256"
        }
      ],
      "name": "safeTransferFrom",
      "outputs": [],
      "stateMutability": "nonpayable",
      "type": "function"
    },
    {
      "inputs": [
        {
          "internalType": "address",
          "name": "from",
          "type": "address"
        },
        {
          "internalType": "address",
          "name": "to",
          "type": "address"
        },
        {
          "internalType": "uint256",
          "name": "tokenId",
          "type": "uint256"
        },
        {
          "internalType": "bytes",
          "name": "_data",
          "type": "bytes"
        }
      ],
      "name": "safeTransferFrom",
      "outputs": [],
      "stateMutability": "nonpayable",
      "type": "function"
    },
    {
      "inputs": [],
      "name": "getBuildings",
      "outputs": [
        {
          "components": [
            {
              "internalType": "string",
              "name": "name",
              "type": "string"
            },
            {
              "internalType": "address",
              "name": "owner",
              "type": "address"
            },
            {
              "internalType": "int256",
              "name": "posX",
              "type": "int256"
            },
            {
              "internalType": "int256",
              "name": "posY",
              "type": "int256"
            },
            {
              "internalType": "int256",
              "name": "posZ",
              "type": "int256"
            },
            {
              "internalType": "uint256",
              "name": "sizeX",
              "type": "uint256"
            },
            {
              "internalType": "uint256",
              "name": "sizeY",
              "type": "uint256"
            },
            {
              "internalType": "uint256",
              "name": "sizeZ",
              "type": "uint256"
            }
          ],
          "internalType": "struct Pverse.Building[]",
          "name": "",
          "type": "tuple[]"
        }
      ],
      "stateMutability": "view",
      "type": "function",
      "constant": true
    },
    {
      "inputs": [
        {
          "internalType": "uint256",
          "name": "_id",
          "type": "uint256"
        }
      ],
      "name": "getBuilding",
      "outputs": [
        {
          "components": [
            {
              "internalType": "string",
              "name": "name",
              "type": "string"
            },
            {
              "internalType": "address",
              "name": "owner",
              "type": "address"
            },
            {
              "internalType": "int256",
              "name": "posX",
              "type": "int256"
            },
            {
              "internalType": "int256",
              "name": "posY",
              "type": "int256"
            },
            {
              "internalType": "int256",
              "name": "posZ",
              "type": "int256"
            },
            {
              "internalType": "uint256",
              "name": "sizeX",
              "type": "uint256"
            },
            {
              "internalType": "uint256",
              "name": "sizeY",
              "type": "uint256"
            },
            {
              "internalType": "uint256",
              "name": "sizeZ",
              "type": "uint256"
            }
          ],
          "internalType": "struct Pverse.Building",
          "name": "",
          "type": "tuple"
        }
      ],
      "stateMutability": "view",
      "type": "function",
      "constant": true
    }
  ],
  "bytecode": "0x608060405269152d02c7e14af6800000600655601f60075560006008553480156200002957600080fd5b50604051620064603803806200646083398181016040528101906200004f919062002e3f565b828281600090805190602001906200006992919062002d06565b5080600190805190602001906200008292919062002d06565b5050508060068190555060096040518061010001604052806040518060400160405280601081526020017f50766572736520436974792048616c6c000000000000000000000000000000008152508152602001600073ffffffffffffffffffffffffffffffffffffffff168152602001600081526020016000815260200160008152602001600a8152602001600a8152602001600a815250908060018154018082558091505060019003906000526020600020906008020160009091909190915060008201518160000190805190602001906200016192919062002d06565b5060208201518160010160006101000a81548173ffffffffffffffffffffffffffffffffffffffff021916908373ffffffffffffffffffffffffffffffffffffffff16021790555060408201518160020155606082015181600301556080820151816004015560a0820151816005015560c0820151816006015560e08201518160070155505060096040518061010001604052806040518060400160405280600d81526020017f50756c73654f4720486f74656c000000000000000000000000000000000000008152508152602001600073ffffffffffffffffffffffffffffffffffffffff16815260200160008152602001600a815260200160008152602001600a815260200160058152602001600381525090806001815401808255809150506001900390600052602060002090600802016000909190919091506000820151816000019080519060200190620002bc92919062002d06565b5060208201518160010160006101000a81548173ffffffffffffffffffffffffffffffffffffffff021916908373ffffffffffffffffffffffffffffffffffffffff16021790555060408201518160020155606082015181600301556080820151816004015560a0820151816005015560c0820151816006015560e08201518160070155505060096040518061010001604052806040518060400160405280600e81526020017f426974636f696e2043656e7465720000000000000000000000000000000000008152508152602001600073ffffffffffffffffffffffffffffffffffffffff168152602001600081526020017ffffffffffffffffffffffffffffffffffffffffffffffffffffffffffffffff6815260200160008152602001600a8152602001600581526020016003815250908060018154018082558091505060019003906000526020600020906008020160009091909190915060008201518160000190805190602001906200043692919062002d06565b5060208201518160010160006101000a81548173ffffffffffffffffffffffffffffffffffffffff021916908373ffffffffffffffffffffffffffffffffffffffff16021790555060408201518160020155606082015181600301556080820151816004015560a0820151816005015560c0820151816006015560e08201518160070155505060096040518061010001604052806040518060400160405280601981526020017f457468657265756d204b697474656e2061646f7074696f6e20000000000000008152508152602001600073ffffffffffffffffffffffffffffffffffffffff168152602001600a8152602001600081526020016000815260200160058152602001601981526020016005815250908060018154018082558091505060019003906000526020600020906008020160009091909190915060008201518160000190805190602001906200059192919062002d06565b5060208201518160010160006101000a81548173ffffffffffffffffffffffffffffffffffffffff021916908373ffffffffffffffffffffffffffffffffffffffff16021790555060408201518160020155606082015181600301556080820151816004015560a0820151816005015560c0820151816006015560e08201518160070155505060096040518061010001604052806040518060400160405280600f81526020017f50756c7365436861696e204d616c6c00000000000000000000000000000000008152508152602001600073ffffffffffffffffffffffffffffffffffffffff1681526020017ffffffffffffffffffffffffffffffffffffffffffffffffffffffffffffffff68152602001600081526020016000815260200160058152602001601981526020016005815250908060018154018082558091505060019003906000526020600020906008020160009091909190915060008201518160000190805190602001906200070b92919062002d06565b5060208201518160010160006101000a81548173ffffffffffffffffffffffffffffffffffffffff021916908373ffffffffffffffffffffffffffffffffffffffff16021790555060408201518160020155606082015181600301556080820151816004015560a0820151816005015560c0820151816006015560e08201518160070155505060096040518061010001604052806040518060400160405280601481526020017f52696368617264204865617274205374617475650000000000000000000000008152508152602001600073ffffffffffffffffffffffffffffffffffffffff1681526020017fffffffffffffffffffffffffffffffffffffffffffffffffffffffffffffffec8152602001600081526020016000815260200160058152602001601981526020016005815250908060018154018082558091505060019003906000526020600020906008020160009091909190915060008201518160000190805190602001906200088592919062002d06565b5060208201518160010160006101000a81548173ffffffffffffffffffffffffffffffffffffffff021916908373ffffffffffffffffffffffffffffffffffffffff16021790555060408201518160020155606082015181600301556080820151816004015560a0820151816005015560c0820151816006015560e08201518160070155505060096040518061010001604052806040518060400160405280601381526020017f5076657273652053706f727473204172656e61000000000000000000000000008152508152602001600073ffffffffffffffffffffffffffffffffffffffff1681526020017fffffffffffffffffffffffffffffffffffffffffffffffffffffffffffffffd88152602001600a8152602001600081526020016005815260200160198152602001600581525090806001815401808255809150506001900390600052602060002090600802016000909190919091506000820151816000019080519060200190620009ff92919062002d06565b5060208201518160010160006101000a81548173ffffffffffffffffffffffffffffffffffffffff021916908373ffffffffffffffffffffffffffffffffffffffff16021790555060408201518160020155606082015181600301556080820151816004015560a0820151816005015560c0820151816006015560e08201518160070155505060096040518061010001604052806040518060400160405280601281526020017f507665727365204f7065726120486f75736500000000000000000000000000008152508152602001600073ffffffffffffffffffffffffffffffffffffffff168152602001601481526020016000815260200160008152602001600581526020016019815260200160058152509080600181540180825580915050600190039060005260206000209060080201600090919091909150600082015181600001908051906020019062000b5a92919062002d06565b5060208201518160010160006101000a81548173ffffffffffffffffffffffffffffffffffffffff021916908373ffffffffffffffffffffffffffffffffffffffff16021790555060408201518160020155606082015181600301556080820151816004015560a0820151816005015560c0820151816006015560e08201518160070155505060096040518061010001604052806040518060400160405280600f81526020017f4d6f756e742048656172746d6f726500000000000000000000000000000000008152508152602001600073ffffffffffffffffffffffffffffffffffffffff16815260200160288152602001600a815260200160008152602001600581526020016019815260200160058152509080600181540180825580915050600190039060005260206000209060080201600090919091909150600082015181600001908051906020019062000cb592919062002d06565b5060208201518160010160006101000a81548173ffffffffffffffffffffffffffffffffffffffff021916908373ffffffffffffffffffffffffffffffffffffffff16021790555060408201518160020155606082015181600301556080820151816004015560a0820151816005015560c0820151816006015560e08201518160070155505060096040518061010001604052806040518060400160405280601281526020017f5076657273652057686f6c6520466f6f647300000000000000000000000000008152508152602001600073ffffffffffffffffffffffffffffffffffffffff168152602001603281526020016000815260200160008152602001600a8152602001600a8152602001600a8152509080600181540180825580915050600190039060005260206000209060080201600090919091909150600082015181600001908051906020019062000e1092919062002d06565b5060208201518160010160006101000a81548173ffffffffffffffffffffffffffffffffffffffff021916908373ffffffffffffffffffffffffffffffffffffffff16021790555060408201518160020155606082015181600301556080820151816004015560a0820151816005015560c0820151816006015560e08201518160070155505060096040518061010001604052806040518060400160405280601281526020017f50756c73654f47205374616b65486f75736500000000000000000000000000008152508152602001600073ffffffffffffffffffffffffffffffffffffffff168152602001601e81526020016000815260200160008152602001600a8152602001600a8152602001600a8152509080600181540180825580915050600190039060005260206000209060080201600090919091909150600082015181600001908051906020019062000f6b92919062002d06565b5060208201518160010160006101000a81548173ffffffffffffffffffffffffffffffffffffffff021916908373ffffffffffffffffffffffffffffffffffffffff16021790555060408201518160020155606082015181600301556080820151816004015560a0820151816005015560c0820151816006015560e08201518160070155505060096040518061010001604052806040518060400160405280601781526020017f5076657273652047656e746c656d656e277320436c75620000000000000000008152508152602001600073ffffffffffffffffffffffffffffffffffffffff1681526020017fffffffffffffffffffffffffffffffffffffffffffffffffffffffffffffffe281526020016000815260200160008152602001600a8152602001600a8152602001600a81525090806001815401808255809150506001900390600052602060002090600802016000909190919091506000820151816000019080519060200190620010e592919062002d06565b5060208201518160010160006101000a81548173ffffffffffffffffffffffffffffffffffffffff021916908373ffffffffffffffffffffffffffffffffffffffff16021790555060408201518160020155606082015181600301556080820151816004015560a0820151816005015560c0820151816006015560e08201518160070155505060096040518061010001604052806040518060400160405280600c81526020017f50756c73652042726964676500000000000000000000000000000000000000008152508152602001600073ffffffffffffffffffffffffffffffffffffffff1681526020017fffffffffffffffffffffffffffffffffffffffffffffffffffffffffffffffce81526020016000815260200160008152602001600a8152602001600a8152602001600a815250908060018154018082558091505060019003906000526020600020906008020160009091909190915060008201518160000190805190602001906200125f92919062002d06565b5060208201518160010160006101000a81548173ffffffffffffffffffffffffffffffffffffffff021916908373ffffffffffffffffffffffffffffffffffffffff16021790555060408201518160020155606082015181600301556080820151816004015560a0820151816005015560c0820151816006015560e08201518160070155505060096040518061010001604052806040518060400160405280601381526020017f486578206c757875727920626f757469717565000000000000000000000000008152508152602001600073ffffffffffffffffffffffffffffffffffffffff1681526020017fffffffffffffffffffffffffffffffffffffffffffffffffffffffffffffffd881526020017fffffffffffffffffffffffffffffffffffffffffffffffffffffffffffffffec8152602001600081526020016005815260200160198152602001600581525090806001815401808255809150506001900390600052602060002090600802016000909190919091506000820151816000019080519060200190620013f892919062002d06565b5060208201518160010160006101000a81548173ffffffffffffffffffffffffffffffffffffffff021916908373ffffffffffffffffffffffffffffffffffffffff16021790555060408201518160020155606082015181600301556080820151816004015560a0820151816005015560c0820151816006015560e08201518160070155505060096040518061010001604052806040518060400160405280601181526020017f50766572736520576565642053746f72650000000000000000000000000000008152508152602001600073ffffffffffffffffffffffffffffffffffffffff1681526020017fffffffffffffffffffffffffffffffffffffffffffffffffffffffffffffffd881526020017fffffffffffffffffffffffffffffffffffffffffffffffffffffffffffffffce81526020016000815260200160058152602001601981526020016005815250908060018154018082558091505060019003906000526020600020906008020160009091909190915060008201518160000190805190602001906200159192919062002d06565b5060208201518160010160006101000a81548173ffffffffffffffffffffffffffffffffffffffff021916908373ffffffffffffffffffffffffffffffffffffffff16021790555060408201518160020155606082015181600301556080820151816004015560a0820151816005015560c0820151816006015560e08201518160070155505060096040518061010001604052806040518060400160405280600d81526020017f5265676761652049736c616e64000000000000000000000000000000000000008152508152602001600073ffffffffffffffffffffffffffffffffffffffff168152602001602881526020017fffffffffffffffffffffffffffffffffffffffffffffffffffffffffffffffce81526020016000815260200160058152602001601981526020016005815250908060018154018082558091505060019003906000526020600020906008020160009091909190915060008201518160000190805190602001906200170b92919062002d06565b5060208201518160010160006101000a81548173ffffffffffffffffffffffffffffffffffffffff021916908373ffffffffffffffffffffffffffffffffffffffff16021790555060408201518160020155606082015181600301556080820151816004015560a0820151816005015560c0820151816006015560e08201518160070155505060096040518061010001604052806040518060400160405280601181526020017f4172746875722048617965732042616e6b0000000000000000000000000000008152508152602001600073ffffffffffffffffffffffffffffffffffffffff168152602001602881526020017fffffffffffffffffffffffffffffffffffffffffffffffffffffffffffffffec81526020016000815260200160058152602001601981526020016005815250908060018154018082558091505060019003906000526020600020906008020160009091909190915060008201518160000190805190602001906200188592919062002d06565b5060208201518160010160006101000a81548173ffffffffffffffffffffffffffffffffffffffff021916908373ffffffffffffffffffffffffffffffffffffffff16021790555060408201518160020155606082015181600301556080820151816004015560a0820151816005015560c0820151816006015560e08201518160070155505060096040518061010001604052806040518060400160405280601781526020017f5361746f736869204e616b616d6f746f20426f78696e670000000000000000008152508152602001600073ffffffffffffffffffffffffffffffffffffffff168152602001604681526020016000815260200160008152602001600a8152602001600a8152602001600a81525090806001815401808255809150506001900390600052602060002090600802016000909190919091506000820151816000019080519060200190620019e092919062002d06565b5060208201518160010160006101000a81548173ffffffffffffffffffffffffffffffffffffffff021916908373ffffffffffffffffffffffffffffffffffffffff16021790555060408201518160020155606082015181600301556080820151816004015560a0820151816005015560c0820151816006015560e08201518160070155505060096040518061010001604052806040518060400160405280601581526020017f50766572736520566963746f7269612046616c6c7300000000000000000000008152508152602001600073ffffffffffffffffffffffffffffffffffffffff1681526020017fffffffffffffffffffffffffffffffffffffffffffffffffffffffffffffffba81526020016000815260200160008152602001600a8152602001600a8152602001600a8152509080600181540180825580915050600190039060005260206000209060080201600090919091909150600082015181600001908051906020019062001b5a92919062002d06565b5060208201518160010160006101000a81548173ffffffffffffffffffffffffffffffffffffffff021916908373ffffffffffffffffffffffffffffffffffffffff16021790555060408201518160020155606082015181600301556080820151816004015560a0820151816005015560c0820151816006015560e08201518160070155505060096040518061010001604052806040518060400160405280600b81526020017f436f6e646f6d696e69756d0000000000000000000000000000000000000000008152508152602001600073ffffffffffffffffffffffffffffffffffffffff168152602001605a81526020016000815260200160008152602001600a8152602001600a8152602001600a8152509080600181540180825580915050600190039060005260206000209060080201600090919091909150600082015181600001908051906020019062001cb592919062002d06565b5060208201518160010160006101000a81548173ffffffffffffffffffffffffffffffffffffffff021916908373ffffffffffffffffffffffffffffffffffffffff16021790555060408201518160020155606082015181600301556080820151816004015560a0820151816005015560c0820151816006015560e08201518160070155505060096040518061010001604052806040518060400160405280600681526020017f43687572636800000000000000000000000000000000000000000000000000008152508152602001600073ffffffffffffffffffffffffffffffffffffffff1681526020017fffffffffffffffffffffffffffffffffffffffffffffffffffffffffffffffa681526020016000815260200160008152602001600a8152602001600a8152602001600a8152509080600181540180825580915050600190039060005260206000209060080201600090919091909150600082015181600001908051906020019062001e2f92919062002d06565b5060208201518160010160006101000a81548173ffffffffffffffffffffffffffffffffffffffff021916908373ffffffffffffffffffffffffffffffffffffffff16021790555060408201518160020155606082015181600301556080820151816004015560a0820151816005015560c0820151816006015560e08201518160070155505060096040518061010001604052806040518060400160405280601381526020017f50756c736520456c6563747269632043617273000000000000000000000000008152508152602001600073ffffffffffffffffffffffffffffffffffffffff168152602001606e81526020016000815260200160008152602001600a8152602001600a8152602001600a8152509080600181540180825580915050600190039060005260206000209060080201600090919091909150600082015181600001908051906020019062001f8a92919062002d06565b5060208201518160010160006101000a81548173ffffffffffffffffffffffffffffffffffffffff021916908373ffffffffffffffffffffffffffffffffffffffff16021790555060408201518160020155606082015181600301556080820151816004015560a0820151816005015560c0820151816006015560e08201518160070155505060096040518061010001604052806040518060400160405280601081526020017f546865204772616e642050616c616365000000000000000000000000000000008152508152602001600073ffffffffffffffffffffffffffffffffffffffff1681526020017fffffffffffffffffffffffffffffffffffffffffffffffffffffffffffffff9281526020016000815260200160008152602001600a8152602001600a8152602001600a815250908060018154018082558091505060019003906000526020600020906008020160009091909190915060008201518160000190805190602001906200210492919062002d06565b5060208201518160010160006101000a81548173ffffffffffffffffffffffffffffffffffffffff021916908373ffffffffffffffffffffffffffffffffffffffff16021790555060408201518160020155606082015181600301556080820151816004015560a0820151816005015560c0820151816006015560e08201518160070155505060096040518061010001604052806040518060400160405280600c81526020017f47616e6720486964656f757400000000000000000000000000000000000000008152508152602001600073ffffffffffffffffffffffffffffffffffffffff168152602001608281526020016000815260200160008152602001600a8152602001600a8152602001600a815250908060018154018082558091505060019003906000526020600020906008020160009091909190915060008201518160000190805190602001906200225f92919062002d06565b5060208201518160010160006101000a81548173ffffffffffffffffffffffffffffffffffffffff021916908373ffffffffffffffffffffffffffffffffffffffff16021790555060408201518160020155606082015181600301556080820151816004015560a0820151816005015560c0820151816006015560e08201518160070155505060096040518061010001604052806040518060400160405280600f81526020017f507665727365204c6f6e672042617900000000000000000000000000000000008152508152602001600073ffffffffffffffffffffffffffffffffffffffff1681526020017fffffffffffffffffffffffffffffffffffffffffffffffffffffffffffffff7e81526020016000815260200160008152602001600a8152602001600a8152602001600a81525090806001815401808255809150506001900390600052602060002090600802016000909190919091506000820151816000019080519060200190620023d992919062002d06565b5060208201518160010160006101000a81548173ffffffffffffffffffffffffffffffffffffffff021916908373ffffffffffffffffffffffffffffffffffffffff16021790555060408201518160020155606082015181600301556080820151816004015560a0820151816005015560c0820151816006015560e08201518160070155505060096040518061010001604052806040518060400160405280601581526020017f437261636b204865616420537472697020436c756200000000000000000000008152508152602001600073ffffffffffffffffffffffffffffffffffffffff168152602001609681526020016000815260200160008152602001600a8152602001600a8152602001600a815250908060018154018082558091505060019003906000526020600020906008020160009091909190915060008201518160000190805190602001906200253492919062002d06565b5060208201518160010160006101000a81548173ffffffffffffffffffffffffffffffffffffffff021916908373ffffffffffffffffffffffffffffffffffffffff16021790555060408201518160020155606082015181600301556080820151816004015560a0820151816005015560c0820151816006015560e08201518160070155505060096040518061010001604052806040518060400160405280600981526020017f43686f702053686f7000000000000000000000000000000000000000000000008152508152602001600073ffffffffffffffffffffffffffffffffffffffff1681526020017fffffffffffffffffffffffffffffffffffffffffffffffffffffffffffffff6a81526020016000815260200160008152602001600a8152602001600a8152602001600a81525090806001815401808255809150506001900390600052602060002090600802016000909190919091506000820151816000019080519060200190620026ae92919062002d06565b5060208201518160010160006101000a81548173ffffffffffffffffffffffffffffffffffffffff021916908373ffffffffffffffffffffffffffffffffffffffff16021790555060408201518160020155606082015181600301556080820151816004015560a0820151816005015560c0820151816006015560e08201518160070155505060096040518061010001604052806040518060400160405280600481526020017f536c756d000000000000000000000000000000000000000000000000000000008152508152602001600073ffffffffffffffffffffffffffffffffffffffff16815260200160aa81526020016000815260200160008152602001600a8152602001600a8152602001600a815250908060018154018082558091505060019003906000526020600020906008020160009091909190915060008201518160000190805190602001906200280992919062002d06565b5060208201518160010160006101000a81548173ffffffffffffffffffffffffffffffffffffffff021916908373ffffffffffffffffffffffffffffffffffffffff16021790555060408201518160020155606082015181600301556080820151816004015560a0820151816005015560c0820151816006015560e08201518160070155505060096040518061010001604052806040518060400160405280601381526020017f4e75636c65617220506f77657220506c616e74000000000000000000000000008152508152602001600073ffffffffffffffffffffffffffffffffffffffff1681526020017fffffffffffffffffffffffffffffffffffffffffffffffffffffffffffffff5681526020016000815260200160008152602001600a8152602001600a8152602001600a815250908060018154018082558091505060019003906000526020600020906008020160009091909190915060008201518160000190805190602001906200298392919062002d06565b5060208201518160010160006101000a81548173ffffffffffffffffffffffffffffffffffffffff021916908373ffffffffffffffffffffffffffffffffffffffff16021790555060408201518160020155606082015181600301556080820151816004015560a0820151816005015560c0820151816006015560e08201518160070155505060096040518061010001604052806040518060400160405280601081526020017f2050766572736520507972616d696473000000000000000000000000000000008152508152602001600073ffffffffffffffffffffffffffffffffffffffff1681526020017fffffffffffffffffffffffffffffffffffffffffffffffffffffffffffffffd881526020016028815260200160008152602001600581526020016019815260200160058152509080600181540180825580915050600190039060005260206000209060080201600090919091909150600082015181600001908051906020019062002afd92919062002d06565b5060208201518160010160006101000a81548173ffffffffffffffffffffffffffffffffffffffff021916908373ffffffffffffffffffffffffffffffffffffffff16021790555060408201518160020155606082015181600301556080820151816004015560a0820151816005015560c0820151816006015560e08201518160070155505060096040518061010001604052806040518060400160405280600c81526020017f50766572736520426f61747300000000000000000000000000000000000000008152508152602001600073ffffffffffffffffffffffffffffffffffffffff1681526020017fffffffffffffffffffffffffffffffffffffffffffffffffffffffffffffffd881526020016050815260200160008152602001600581526020016019815260200160058152509080600181540180825580915050600190039060005260206000209060080201600090919091909150600082015181600001908051906020019062002c7792919062002d06565b5060208201518160010160006101000a81548173ffffffffffffffffffffffffffffffffffffffff021916908373ffffffffffffffffffffffffffffffffffffffff16021790555060408201518160020155606082015181600301556080820151816004015560a0820151816005015560c0820151816006015560e0820151816007015550505050506200305b565b82805462002d149062002f66565b90600052602060002090601f01602090048101928262002d38576000855562002d84565b82601f1062002d5357805160ff191683800117855562002d84565b8280016001018555821562002d84579182015b8281111562002d8357825182559160200191906001019062002d66565b5b50905062002d93919062002d97565b5090565b5b8082111562002db257600081600090555060010162002d98565b5090565b600062002dcd62002dc78462002ef0565b62002ec7565b90508281526020810184848401111562002de657600080fd5b62002df384828562002f30565b509392505050565b600082601f83011262002e0d57600080fd5b815162002e1f84826020860162002db6565b91505092915050565b60008151905062002e398162003041565b92915050565b60008060006060848603121562002e5557600080fd5b600084015167ffffffffffffffff81111562002e7057600080fd5b62002e7e8682870162002dfb565b935050602084015167ffffffffffffffff81111562002e9c57600080fd5b62002eaa8682870162002dfb565b925050604062002ebd8682870162002e28565b9150509250925092565b600062002ed362002ee6565b905062002ee1828262002f9c565b919050565b6000604051905090565b600067ffffffffffffffff82111562002f0e5762002f0d62003001565b5b62002f198262003030565b9050602081019050919050565b6000819050919050565b60005b8381101562002f5057808201518184015260208101905062002f33565b8381111562002f60576000848401525b50505050565b6000600282049050600182168062002f7f57607f821691505b6020821081141562002f965762002f9562002fd2565b5b50919050565b62002fa78262003030565b810181811067ffffffffffffffff8211171562002fc95762002fc862003001565b5b80604052505050565b7f4e487b7100000000000000000000000000000000000000000000000000000000600052602260045260246000fd5b7f4e487b7100000000000000000000000000000000000000000000000000000000600052604160045260246000fd5b6000601f19601f8301169050919050565b6200304c8162002f26565b81146200305857600080fd5b50565b6133f5806200306b6000396000f3fe60806040526004361061011f5760003560e01c806370a08231116100a0578063b88d4fde11610064578063b88d4fde14610405578063c87b56dd1461042e578063d5abeb011461046b578063d9cf6a2614610496578063e985e9c5146104c15761011f565b806370a082311461031b57806395d89b41146103585780639dfd8b0214610383578063a0712d68146103c0578063a22cb465146103dc5761011f565b806318160ddd116100e757806318160ddd1461021d57806323b872dd1461024857806342842e0e146102715780634c96a0621461029a5780636352211e146102de5761011f565b806301ffc9a71461012457806306fdde0314610161578063081812fc1461018c578063095ea7b3146101c957806313faede6146101f2575b600080fd5b34801561013057600080fd5b5061014b6004803603810190610146919061227c565b6104fe565b60405161015891906128bc565b60405180910390f35b34801561016d57600080fd5b506101766105e0565b60405161018391906128d7565b60405180910390f35b34801561019857600080fd5b506101b360048036038101906101ae91906122ce565b610672565b6040516101c09190612833565b60405180910390f35b3480156101d557600080fd5b506101f060048036038101906101eb9190612240565b6106f7565b005b3480156101fe57600080fd5b5061020761080f565b6040516102149190612b60565b60405180910390f35b34801561022957600080fd5b50610232610815565b60405161023f9190612b60565b60405180910390f35b34801561025457600080fd5b5061026f600480360381019061026a919061213a565b61081b565b005b34801561027d57600080fd5b506102986004803603810190610293919061213a565b610911565b005b3480156102a657600080fd5b506102c160048036038101906102bc91906122ce565b610931565b6040516102d59897969594939291906128f9565b60405180910390f35b3480156102ea57600080fd5b50610305600480360381019061030091906122ce565b610a31565b6040516103129190612833565b60405180910390f35b34801561032757600080fd5b50610342600480360381019061033d91906120d5565b610ae3565b60405161034f9190612b60565b60405180910390f35b34801561036457600080fd5b5061036d610b9b565b60405161037a91906128d7565b60405180910390f35b34801561038f57600080fd5b506103aa60048036038101906103a591906122ce565b610c2d565b6040516103b79190612b3e565b60405180910390f35b6103da60048036038101906103d591906122ce565b610dc0565b005b3480156103e857600080fd5b5061040360048036038101906103fe9190612204565b610f56565b005b34801561041157600080fd5b5061042c60048036038101906104279190612189565b610f6c565b005b34801561043a57600080fd5b50610455600480360381019061045091906122ce565b611064565b60405161046291906128d7565b60405180910390f35b34801561047757600080fd5b5061048061110b565b60405161048d9190612b60565b60405180910390f35b3480156104a257600080fd5b506104ab611111565b6040516104b8919061289a565b60405180910390f35b3480156104cd57600080fd5b506104e860048036038101906104e391906120fe565b611295565b6040516104f591906128bc565b60405180910390f35b60007f80ac58cd000000000000000000000000000000000000000000000000000000007bffffffffffffffffffffffffffffffffffffffffffffffffffffffff1916827bffffffffffffffffffffffffffffffffffffffffffffffffffffffff191614806105c957507f5b5e139f000000000000000000000000000000000000000000000000000000007bffffffffffffffffffffffffffffffffffffffffffffffffffffffff1916827bffffffffffffffffffffffffffffffffffffffffffffffffffffffff1916145b806105d957506105d882611329565b5b9050919050565b6060600080546105ef90612dd9565b80601f016020809104026020016040519081016040528092919081815260200182805461061b90612dd9565b80156106685780601f1061063d57610100808354040283529160200191610668565b820191906000526020600020905b81548152906001019060200180831161064b57829003601f168201915b5050505050905090565b600061067d82611393565b6106bc576040517f08c379a00000000000000000000000000000000000000000000000000000000081526004016106b390612abe565b60405180910390fd5b6004600083815260200190815260200160002060009054906101000a900473ffffffffffffffffffffffffffffffffffffffff169050919050565b600061070282610a31565b90508073ffffffffffffffffffffffffffffffffffffffff168373ffffffffffffffffffffffffffffffffffffffff161415610773576040517f08c379a000000000000000000000000000000000000000000000000000000000815260040161076a90612afe565b60405180910390fd5b8073ffffffffffffffffffffffffffffffffffffffff166107926113ff565b73ffffffffffffffffffffffffffffffffffffffff1614806107c157506107c0816107bb6113ff565b611295565b5b610800576040517f08c379a00000000000000000000000000000000000000000000000000000000081526004016107f790612a3e565b60405180910390fd5b61080a8383611407565b505050565b60065481565b60085481565b61082c6108266113ff565b826114c0565b61086b576040517f08c379a000000000000000000000000000000000000000000000000000000000815260040161086290612b1e565b60405180910390fd5b81600960018361087b9190612ce5565b815481106108b2577f4e487b7100000000000000000000000000000000000000000000000000000000600052603260045260246000fd5b906000526020600020906008020160010160006101000a81548173ffffffffffffffffffffffffffffffffffffffff021916908373ffffffffffffffffffffffffffffffffffffffff16021790555061090c83838361159e565b505050565b61092c83838360405180602001604052806000815250610f6c565b505050565b6009818154811061094157600080fd5b906000526020600020906008020160009150905080600001805461096490612dd9565b80601f016020809104026020016040519081016040528092919081815260200182805461099090612dd9565b80156109dd5780601f106109b2576101008083540402835291602001916109dd565b820191906000526020600020905b8154815290600101906020018083116109c057829003601f168201915b5050505050908060010160009054906101000a900473ffffffffffffffffffffffffffffffffffffffff16908060020154908060030154908060040154908060050154908060060154908060070154905088565b6000806002600084815260200190815260200160002060009054906101000a900473ffffffffffffffffffffffffffffffffffffffff169050600073ffffffffffffffffffffffffffffffffffffffff168173ffffffffffffffffffffffffffffffffffffffff161415610ada576040517f08c379a0000000000000000000000000000000000000000000000000000000008152600401610ad190612a7e565b60405180910390fd5b80915050919050565b60008073ffffffffffffffffffffffffffffffffffffffff168273ffffffffffffffffffffffffffffffffffffffff161415610b54576040517f08c379a0000000000000000000000000000000000000000000000000000000008152600401610b4b90612a5e565b60405180910390fd5b600360008373ffffffffffffffffffffffffffffffffffffffff1673ffffffffffffffffffffffffffffffffffffffff168152602001908152602001600020549050919050565b606060018054610baa90612dd9565b80601f0160208091040260200160405190810160405280929190818152602001828054610bd690612dd9565b8015610c235780601f10610bf857610100808354040283529160200191610c23565b820191906000526020600020905b815481529060010190602001808311610c0657829003601f168201915b5050505050905090565b610c35611fa9565b6009600183610c449190612ce5565b81548110610c7b577f4e487b7100000000000000000000000000000000000000000000000000000000600052603260045260246000fd5b906000526020600020906008020160405180610100016040529081600082018054610ca590612dd9565b80601f0160208091040260200160405190810160405280929190818152602001828054610cd190612dd9565b8015610d1e5780601f10610cf357610100808354040283529160200191610d1e565b820191906000526020600020905b815481529060010190602001808311610d0157829003601f168201915b505050505081526020016001820160009054906101000a900473ffffffffffffffffffffffffffffffffffffffff1673ffffffffffffffffffffffffffffffffffffffff1673ffffffffffffffffffffffffffffffffffffffff16815260200160028201548152602001600382015481526020016004820154815260200160058201548152602001600682015481526020016007820154815250509050919050565b60006008549050600754811115610dd657600080fd5b600073ffffffffffffffffffffffffffffffffffffffff166009600184610dfd9190612ce5565b81548110610e34577f4e487b7100000000000000000000000000000000000000000000000000000000600052603260045260246000fd5b906000526020600020906008020160010160009054906101000a900473ffffffffffffffffffffffffffffffffffffffff1673ffffffffffffffffffffffffffffffffffffffff1614610e8657600080fd5b69152d02c7e14af6800000341015610e9d57600080fd5b336009600184610ead9190612ce5565b81548110610ee4577f4e487b7100000000000000000000000000000000000000000000000000000000600052603260045260246000fd5b906000526020600020906008020160010160006101000a81548173ffffffffffffffffffffffffffffffffffffffff021916908373ffffffffffffffffffffffffffffffffffffffff1602179055506001600854610f429190612c5e565b600881905550610f523383611805565b5050565b610f68610f616113ff565b8383611823565b5050565b610f7d610f776113ff565b836114c0565b610fbc576040517f08c379a0000000000000000000000000000000000000000000000000000000008152600401610fb390612b1e565b60405180910390fd5b826009600184610fcc9190612ce5565b81548110611003577f4e487b7100000000000000000000000000000000000000000000000000000000600052603260045260246000fd5b906000526020600020906008020160010160006101000a81548173ffffffffffffffffffffffffffffffffffffffff021916908373ffffffffffffffffffffffffffffffffffffffff16021790555061105e84848484611990565b50505050565b606061106f82611393565b6110ae576040517f08c379a00000000000000000000000000000000000000000000000000000000081526004016110a590612ade565b60405180910390fd5b60006110b86119ec565b905060008151116110d85760405180602001604052806000815250611103565b806110e284611a03565b6040516020016110f392919061280f565b6040516020818303038152906040525b915050919050565b60075481565b60606009805480602002602001604051908101604052809291908181526020016000905b8282101561128c57838290600052602060002090600802016040518061010001604052908160008201805461116990612dd9565b80601f016020809104026020016040519081016040528092919081815260200182805461119590612dd9565b80156111e25780601f106111b7576101008083540402835291602001916111e2565b820191906000526020600020905b8154815290600101906020018083116111c557829003601f168201915b505050505081526020016001820160009054906101000a900473ffffffffffffffffffffffffffffffffffffffff1673ffffffffffffffffffffffffffffffffffffffff1673ffffffffffffffffffffffffffffffffffffffff168152602001600282015481526020016003820154815260200160048201548152602001600582015481526020016006820154815260200160078201548152505081526020019060010190611135565b50505050905090565b6000600560008473ffffffffffffffffffffffffffffffffffffffff1673ffffffffffffffffffffffffffffffffffffffff16815260200190815260200160002060008373ffffffffffffffffffffffffffffffffffffffff1673ffffffffffffffffffffffffffffffffffffffff16815260200190815260200160002060009054906101000a900460ff16905092915050565b60007f01ffc9a7000000000000000000000000000000000000000000000000000000007bffffffffffffffffffffffffffffffffffffffffffffffffffffffff1916827bffffffffffffffffffffffffffffffffffffffffffffffffffffffff1916149050919050565b60008073ffffffffffffffffffffffffffffffffffffffff166002600084815260200190815260200160002060009054906101000a900473ffffffffffffffffffffffffffffffffffffffff1673ffffffffffffffffffffffffffffffffffffffff1614159050919050565b600033905090565b816004600083815260200190815260200160002060006101000a81548173ffffffffffffffffffffffffffffffffffffffff021916908373ffffffffffffffffffffffffffffffffffffffff160217905550808273ffffffffffffffffffffffffffffffffffffffff1661147a83610a31565b73ffffffffffffffffffffffffffffffffffffffff167f8c5be1e5ebec7d5bd14f71427d1e84f3dd0314c0f7b2291e5b200ac8c7c3b92560405160405180910390a45050565b60006114cb82611393565b61150a576040517f08c379a000000000000000000000000000000000000000000000000000000000815260040161150190612a1e565b60405180910390fd5b600061151583610a31565b90508073ffffffffffffffffffffffffffffffffffffffff168473ffffffffffffffffffffffffffffffffffffffff16148061158457508373ffffffffffffffffffffffffffffffffffffffff1661156c84610672565b73ffffffffffffffffffffffffffffffffffffffff16145b8061159557506115948185611295565b5b91505092915050565b8273ffffffffffffffffffffffffffffffffffffffff166115be82610a31565b73ffffffffffffffffffffffffffffffffffffffff1614611614576040517f08c379a000000000000000000000000000000000000000000000000000000000815260040161160b9061299e565b60405180910390fd5b600073ffffffffffffffffffffffffffffffffffffffff168273ffffffffffffffffffffffffffffffffffffffff161415611684576040517f08c379a000000000000000000000000000000000000000000000000000000000815260040161167b906129de565b60405180910390fd5b61168f838383611bb0565b61169a600082611407565b6001600360008573ffffffffffffffffffffffffffffffffffffffff1673ffffffffffffffffffffffffffffffffffffffff16815260200190815260200160002060008282546116ea9190612ce5565b925050819055506001600360008473ffffffffffffffffffffffffffffffffffffffff1673ffffffffffffffffffffffffffffffffffffffff16815260200190815260200160002060008282546117419190612c5e565b92505081905550816002600083815260200190815260200160002060006101000a81548173ffffffffffffffffffffffffffffffffffffffff021916908373ffffffffffffffffffffffffffffffffffffffff160217905550808273ffffffffffffffffffffffffffffffffffffffff168473ffffffffffffffffffffffffffffffffffffffff167fddf252ad1be2c89b69c2b068fc378daa952ba7f163c4a11628f55a4df523b3ef60405160405180910390a4611800838383611bb5565b505050565b61181f828260405180602001604052806000815250611bba565b5050565b8173ffffffffffffffffffffffffffffffffffffffff168373ffffffffffffffffffffffffffffffffffffffff161415611892576040517f08c379a0000000000000000000000000000000000000000000000000000000008152600401611889906129fe565b60405180910390fd5b80600560008573ffffffffffffffffffffffffffffffffffffffff1673ffffffffffffffffffffffffffffffffffffffff16815260200190815260200160002060008473ffffffffffffffffffffffffffffffffffffffff1673ffffffffffffffffffffffffffffffffffffffff16815260200190815260200160002060006101000a81548160ff0219169083151502179055508173ffffffffffffffffffffffffffffffffffffffff168373ffffffffffffffffffffffffffffffffffffffff167f17307eab39ab6107e8899845ad3d59bd9653f200f220920489ca2b5937696c318360405161198391906128bc565b60405180910390a3505050565b61199b84848461159e565b6119a784848484611c15565b6119e6576040517f08c379a00000000000000000000000000000000000000000000000000000000081526004016119dd9061297e565b60405180910390fd5b50505050565b606060405180602001604052806000815250905090565b60606000821415611a4b576040518060400160405280600181526020017f30000000000000000000000000000000000000000000000000000000000000008152509050611bab565b600082905060005b60008214611a7d578080611a6690612e3c565b915050600a82611a769190612cb4565b9150611a53565b60008167ffffffffffffffff811115611abf577f4e487b7100000000000000000000000000000000000000000000000000000000600052604160045260246000fd5b6040519080825280601f01601f191660200182016040528015611af15781602001600182028036833780820191505090505b5090505b60008514611ba457600182611b0a9190612ce5565b9150600a85611b199190612e85565b6030611b259190612c5e565b60f81b818381518110611b61577f4e487b7100000000000000000000000000000000000000000000000000000000600052603260045260246000fd5b60200101907effffffffffffffffffffffffffffffffffffffffffffffffffffffffffffff1916908160001a905350600a85611b9d9190612cb4565b9450611af5565b8093505050505b919050565b505050565b505050565b611bc48383611dac565b611bd16000848484611c15565b611c10576040517f08c379a0000000000000000000000000000000000000000000000000000000008152600401611c079061297e565b60405180910390fd5b505050565b6000611c368473ffffffffffffffffffffffffffffffffffffffff16611f86565b15611d9f578373ffffffffffffffffffffffffffffffffffffffff1663150b7a02611c5f6113ff565b8786866040518563ffffffff1660e01b8152600401611c81949392919061284e565b602060405180830381600087803b158015611c9b57600080fd5b505af1925050508015611ccc57506040513d601f19601f82011682018060405250810190611cc991906122a5565b60015b611d4f573d8060008114611cfc576040519150601f19603f3d011682016040523d82523d6000602084013e611d01565b606091505b50600081511415611d47576040517f08c379a0000000000000000000000000000000000000000000000000000000008152600401611d3e9061297e565b60405180910390fd5b805181602001fd5b63150b7a0260e01b7bffffffffffffffffffffffffffffffffffffffffffffffffffffffff1916817bffffffffffffffffffffffffffffffffffffffffffffffffffffffff191614915050611da4565b600190505b949350505050565b600073ffffffffffffffffffffffffffffffffffffffff168273ffffffffffffffffffffffffffffffffffffffff161415611e1c576040517f08c379a0000000000000000000000000000000000000000000000000000000008152600401611e1390612a9e565b60405180910390fd5b611e2581611393565b15611e65576040517f08c379a0000000000000000000000000000000000000000000000000000000008152600401611e5c906129be565b60405180910390fd5b611e7160008383611bb0565b6001600360008473ffffffffffffffffffffffffffffffffffffffff1673ffffffffffffffffffffffffffffffffffffffff1681526020019081526020016000206000828254611ec19190612c5e565b92505081905550816002600083815260200190815260200160002060006101000a81548173ffffffffffffffffffffffffffffffffffffffff021916908373ffffffffffffffffffffffffffffffffffffffff160217905550808273ffffffffffffffffffffffffffffffffffffffff16600073ffffffffffffffffffffffffffffffffffffffff167fddf252ad1be2c89b69c2b068fc378daa952ba7f163c4a11628f55a4df523b3ef60405160405180910390a4611f8260008383611bb5565b5050565b6000808273ffffffffffffffffffffffffffffffffffffffff163b119050919050565b60405180610100016040528060608152602001600073ffffffffffffffffffffffffffffffffffffffff1681526020016000815260200160008152602001600081526020016000815260200160008152602001600081525090565b600061201761201284612ba0565b612b7b565b90508281526020810184848401111561202f57600080fd5b61203a848285612d97565b509392505050565b60008135905061205181613363565b92915050565b6000813590506120668161337a565b92915050565b60008135905061207b81613391565b92915050565b60008151905061209081613391565b92915050565b600082601f8301126120a757600080fd5b81356120b7848260208601612004565b91505092915050565b6000813590506120cf816133a8565b92915050565b6000602082840312156120e757600080fd5b60006120f584828501612042565b91505092915050565b6000806040838503121561211157600080fd5b600061211f85828601612042565b925050602061213085828601612042565b9150509250929050565b60008060006060848603121561214f57600080fd5b600061215d86828701612042565b935050602061216e86828701612042565b925050604061217f868287016120c0565b9150509250925092565b6000806000806080858703121561219f57600080fd5b60006121ad87828801612042565b94505060206121be87828801612042565b93505060406121cf878288016120c0565b925050606085013567ffffffffffffffff8111156121ec57600080fd5b6121f887828801612096565b91505092959194509250565b6000806040838503121561221757600080fd5b600061222585828601612042565b925050602061223685828601612057565b9150509250929050565b6000806040838503121561225357600080fd5b600061226185828601612042565b9250506020612272858286016120c0565b9150509250929050565b60006020828403121561228e57600080fd5b600061229c8482850161206c565b91505092915050565b6000602082840312156122b757600080fd5b60006122c584828501612081565b91505092915050565b6000602082840312156122e057600080fd5b60006122ee848285016120c0565b91505092915050565b60006123038383612691565b905092915050565b61231481612d19565b82525050565b61232381612d19565b82525050565b600061233482612be1565b61233e8185612c0f565b93508360208202850161235085612bd1565b8060005b8581101561238c578484038952815161236d85826122f7565b945061237883612c02565b925060208a01995050600181019050612354565b50829750879550505050505092915050565b6123a781612d2b565b82525050565b60006123b882612bec565b6123c28185612c20565b93506123d2818560208601612da6565b6123db81612f72565b840191505092915050565b6123ef81612d63565b82525050565b6123fe81612d63565b82525050565b600061240f82612bf7565b6124198185612c31565b9350612429818560208601612da6565b61243281612f72565b840191505092915050565b600061244882612bf7565b6124528185612c42565b9350612462818560208601612da6565b61246b81612f72565b840191505092915050565b600061248182612bf7565b61248b8185612c53565b935061249b818560208601612da6565b80840191505092915050565b60006124b4603283612c42565b91506124bf82612f83565b604082019050919050565b60006124d7602583612c42565b91506124e282612fd2565b604082019050919050565b60006124fa601c83612c42565b915061250582613021565b602082019050919050565b600061251d602483612c42565b91506125288261304a565b604082019050919050565b6000612540601983612c42565b915061254b82613099565b602082019050919050565b6000612563602c83612c42565b915061256e826130c2565b604082019050919050565b6000612586603883612c42565b915061259182613111565b604082019050919050565b60006125a9602a83612c42565b91506125b482613160565b604082019050919050565b60006125cc602983612c42565b91506125d7826131af565b604082019050919050565b60006125ef602083612c42565b91506125fa826131fe565b602082019050919050565b6000612612602c83612c42565b915061261d82613227565b604082019050919050565b6000612635602f83612c42565b915061264082613276565b604082019050919050565b6000612658602183612c42565b9150612663826132c5565b604082019050919050565b600061267b603183612c42565b915061268682613314565b604082019050919050565b60006101008301600083015184820360008601526126af8282612404565b91505060208301516126c4602086018261230b565b5060408301516126d760408601826123e6565b5060608301516126ea60608601826123e6565b5060808301516126fd60808601826123e6565b5060a083015161271060a08601826127f1565b5060c083015161272360c08601826127f1565b5060e083015161273660e08601826127f1565b508091505092915050565b600061010083016000830151848203600086015261275f8282612404565b9150506020830151612774602086018261230b565b50604083015161278760408601826123e6565b50606083015161279a60608601826123e6565b5060808301516127ad60808601826123e6565b5060a08301516127c060a08601826127f1565b5060c08301516127d360c08601826127f1565b5060e08301516127e660e08601826127f1565b508091505092915050565b6127fa81612d8d565b82525050565b61280981612d8d565b82525050565b600061281b8285612476565b91506128278284612476565b91508190509392505050565b6000602082019050612848600083018461231a565b92915050565b6000608082019050612863600083018761231a565b612870602083018661231a565b61287d6040830185612800565b818103606083015261288f81846123ad565b905095945050505050565b600060208201905081810360008301526128b48184612329565b905092915050565b60006020820190506128d1600083018461239e565b92915050565b600060208201905081810360008301526128f1818461243d565b905092915050565b6000610100820190508181036000830152612914818b61243d565b9050612923602083018a61231a565b61293060408301896123f5565b61293d60608301886123f5565b61294a60808301876123f5565b61295760a0830186612800565b61296460c0830185612800565b61297160e0830184612800565b9998505050505050505050565b60006020820190508181036000830152612997816124a7565b9050919050565b600060208201905081810360008301526129b7816124ca565b9050919050565b600060208201905081810360008301526129d7816124ed565b9050919050565b600060208201905081810360008301526129f781612510565b9050919050565b60006020820190508181036000830152612a1781612533565b9050919050565b60006020820190508181036000830152612a3781612556565b9050919050565b60006020820190508181036000830152612a5781612579565b9050919050565b60006020820190508181036000830152612a778161259c565b9050919050565b60006020820190508181036000830152612a97816125bf565b9050919050565b60006020820190508181036000830152612ab7816125e2565b9050919050565b60006020820190508181036000830152612ad781612605565b9050919050565b60006020820190508181036000830152612af781612628565b9050919050565b60006020820190508181036000830152612b178161264b565b9050919050565b60006020820190508181036000830152612b378161266e565b9050919050565b60006020820190508181036000830152612b588184612741565b905092915050565b6000602082019050612b756000830184612800565b92915050565b6000612b85612b96565b9050612b918282612e0b565b919050565b6000604051905090565b600067ffffffffffffffff821115612bbb57612bba612f43565b5b612bc482612f72565b9050602081019050919050565b6000819050602082019050919050565b600081519050919050565b600081519050919050565b600081519050919050565b6000602082019050919050565b600082825260208201905092915050565b600082825260208201905092915050565b600082825260208201905092915050565b600082825260208201905092915050565b600081905092915050565b6000612c6982612d8d565b9150612c7483612d8d565b9250827fffffffffffffffffffffffffffffffffffffffffffffffffffffffffffffffff03821115612ca957612ca8612eb6565b5b828201905092915050565b6000612cbf82612d8d565b9150612cca83612d8d565b925082612cda57612cd9612ee5565b5b828204905092915050565b6000612cf082612d8d565b9150612cfb83612d8d565b925082821015612d0e57612d0d612eb6565b5b828203905092915050565b6000612d2482612d6d565b9050919050565b60008115159050919050565b60007fffffffff0000000000000000000000000000000000000000000000000000000082169050919050565b6000819050919050565b600073ffffffffffffffffffffffffffffffffffffffff82169050919050565b6000819050919050565b82818337600083830152505050565b60005b83811015612dc4578082015181840152602081019050612da9565b83811115612dd3576000848401525b50505050565b60006002820490506001821680612df157607f821691505b60208210811415612e0557612e04612f14565b5b50919050565b612e1482612f72565b810181811067ffffffffffffffff82111715612e3357612e32612f43565b5b80604052505050565b6000612e4782612d8d565b91507fffffffffffffffffffffffffffffffffffffffffffffffffffffffffffffffff821415612e7a57612e79612eb6565b5b600182019050919050565b6000612e9082612d8d565b9150612e9b83612d8d565b925082612eab57612eaa612ee5565b5b828206905092915050565b7f4e487b7100000000000000000000000000000000000000000000000000000000600052601160045260246000fd5b7f4e487b7100000000000000000000000000000000000000000000000000000000600052601260045260246000fd5b7f4e487b7100000000000000000000000000000000000000000000000000000000600052602260045260246000fd5b7f4e487b7100000000000000000000000000000000000000000000000000000000600052604160045260246000fd5b6000601f19601f8301169050919050565b7f4552433732313a207472616e7366657220746f206e6f6e20455243373231526560008201527f63656976657220696d706c656d656e7465720000000000000000000000000000602082015250565b7f4552433732313a207472616e736665722066726f6d20696e636f72726563742060008201527f6f776e6572000000000000000000000000000000000000000000000000000000602082015250565b7f4552433732313a20746f6b656e20616c7265616479206d696e74656400000000600082015250565b7f4552433732313a207472616e7366657220746f20746865207a65726f2061646460008201527f7265737300000000000000000000000000000000000000000000000000000000602082015250565b7f4552433732313a20617070726f766520746f2063616c6c657200000000000000600082015250565b7f4552433732313a206f70657261746f7220717565727920666f72206e6f6e657860008201527f697374656e7420746f6b656e0000000000000000000000000000000000000000602082015250565b7f4552433732313a20617070726f76652063616c6c6572206973206e6f74206f7760008201527f6e6572206e6f7220617070726f76656420666f7220616c6c0000000000000000602082015250565b7f4552433732313a2062616c616e636520717565727920666f7220746865207a6560008201527f726f206164647265737300000000000000000000000000000000000000000000602082015250565b7f4552433732313a206f776e657220717565727920666f72206e6f6e657869737460008201527f656e7420746f6b656e0000000000000000000000000000000000000000000000602082015250565b7f4552433732313a206d696e7420746f20746865207a65726f2061646472657373600082015250565b7f4552433732313a20617070726f76656420717565727920666f72206e6f6e657860008201527f697374656e7420746f6b656e0000000000000000000000000000000000000000602082015250565b7f4552433732314d657461646174613a2055524920717565727920666f72206e6f60008201527f6e6578697374656e7420746f6b656e0000000000000000000000000000000000602082015250565b7f4552433732313a20617070726f76616c20746f2063757272656e74206f776e6560008201527f7200000000000000000000000000000000000000000000000000000000000000602082015250565b7f4552433732313a207472616e736665722063616c6c6572206973206e6f74206f60008201527f776e6572206e6f7220617070726f766564000000000000000000000000000000602082015250565b61336c81612d19565b811461337757600080fd5b50565b61338381612d2b565b811461338e57600080fd5b50565b61339a81612d37565b81146133a557600080fd5b50565b6133b181612d8d565b81146133bc57600080fd5b5056fea264697066735822122010d286c580b15cd36377702bc280f446ba59e3accb28e15eacaf4a48283bd50d64736f6c63430008020033",
  "immutableReferences": {},
  "source": "// SPDX-License-Identifier: MIT\npragma solidity ^0.8.0;\n\nimport \"@openzeppelin/contracts/token/ERC721/ERC721.sol\";\n\ncontract Pverse is ERC721 {\n    uint256 public cost = 100000 ether;\n    uint256 public maxSupply = 31;\n    uint256 public totalSupply = 0;\n\n    struct Building {\n        string name;\n        address owner;\n        int256 posX;\n        int256 posY;\n        int256 posZ;\n        uint256 sizeX;\n        uint256 sizeY;\n        uint256 sizeZ;\n    }\n\n    Building[] public buildings;\n\n    constructor(\n        string memory _name,\n        string memory _symbol,\n        uint256 _cost\n    ) ERC721(_name, _symbol) {\n        cost = _cost;\n\n        buildings.push(\n            Building(\"Pverse City Hall\", address(0x0), 0, 0, 0, 10, 10, 10)\n        );\n        buildings.push(Building(\"PulseOG Hotel\", address(0x0), 0, 10, 0, 10, 5, 3));\n        buildings.push(\n            Building(\"Bitcoin Center\", address(0x0), 0, -10, 0, 10, 5, 3)\n        );\n        buildings.push(\n            Building(\"Ethereum Kitten adoption \", address(0x0), 10, 0, 0, 5, 25, 5)\n        );\n        buildings.push(\n            Building(\"PulseChain Mall\", address(0x0), -10, 0, 0, 5, 25, 5)\n        );\n\n        buildings.push(\n            Building(\"Richard Heart Statue\", address(0x0), -20, 0, 0, 5, 25, 5)\n        );\n\n        buildings.push(\n            Building(\"Pverse Sports Arena\", address(0x0), -40, 10, 0, 5, 25, 5)\n        );\n\n        buildings.push(\n            Building(\"Pverse Opera House\", address(0x0), 20, 0, 0, 5, 25, 5)\n        );\n\n        buildings.push(\n            Building(\"Mount Heartmore\", address(0x0), 40, 10, 0, 5, 25, 5)\n        );\n\n        buildings.push(\n            Building(\"Pverse Whole Foods\", address(0x0), 50, 0, 0, 10, 10, 10)\n        );\n\n        buildings.push(\n            Building(\"PulseOG StakeHouse\", address(0x0), 30, 0, 0, 10, 10, 10)\n        );\n\n        buildings.push(\n            Building(\"Pverse Gentlemen's Club\", address(0x0), -30, 0, 0, 10, 10, 10)\n        );\n\n         buildings.push(\n            Building(\"Pulse Bridge\", address(0x0), -50, 0, 0, 10, 10, 10)\n        );\n\n        buildings.push(\n            Building(\"Hex luxury boutique\", address(0x0), -40, -20, 0, 5, 25, 5)\n        );\n\n        buildings.push(\n            Building(\"Pverse Weed Store\", address(0x0), -40, -50, 0, 5, 25, 5)\n        );\n\n        buildings.push(\n            Building(\"Reggae Island\", address(0x0), 40, -50, 0, 5, 25, 5)\n        );\n\n         buildings.push(\n            Building(\"Arthur Hayes Bank\", address(0x0), 40, -20, 0, 5, 25, 5)\n        );\n\n        buildings.push(\n            Building(\"Satoshi Nakamoto Boxing\", address(0x0), 70, 0, 0, 10, 10, 10)\n        );\n\n        buildings.push(\n            Building(\"Pverse Victoria Falls\", address(0x0), -70, 0, 0, 10, 10, 10)\n        );\n\n        buildings.push(\n            Building(\"Condominium\", address(0x0), 90, 0, 0, 10, 10, 10)\n        );\n\n        buildings.push(\n            Building(\"Church\", address(0x0), -90, 0, 0, 10, 10, 10)\n        );\n\n        buildings.push(\n            Building(\"Pulse Electric Cars\", address(0x0), 110, 0, 0, 10, 10, 10)\n        );\n\n        buildings.push(\n            Building(\"The Grand Palace\", address(0x0), -110, 0, 0, 10, 10, 10)\n        );\n\n        buildings.push(\n            Building(\"Gang Hideout\", address(0x0), 130, 0, 0, 10, 10, 10)\n        );\n\n        buildings.push(\n            Building(\"Pverse Long Bay\", address(0x0), -130, 0, 0, 10, 10, 10)\n        );\n\n        buildings.push(\n            Building(\"Crack Head Strip Club\", address(0x0), 150, 0, 0, 10, 10, 10)\n        );\n\n        buildings.push(\n            Building(\"Chop Shop\", address(0x0), -150, 0, 0, 10, 10, 10)\n        );\n\n        buildings.push(\n            Building(\"Slum\", address(0x0), 170, 0, 0, 10, 10, 10)\n        );\n\n        buildings.push(\n            Building(\"Nuclear Power Plant\", address(0x0), -170, 0, 0, 10, 10, 10)\n        );\n\n         buildings.push(\n            Building(\" Pverse Pyramids\", address(0x0), -40, 40, 0, 5, 25, 5)\n        );\n\n        buildings.push(\n            Building(\"Pverse Boats\", address(0x0), -40, 80, 0, 5, 25, 5)\n        );\n\n    }\n\n    function mint(uint256 _id) public payable {\n        uint256 supply = totalSupply;\n        require(supply <= maxSupply);\n        require(buildings[_id - 1].owner == address(0x0));\n        require(msg.value >= 100000 ether);\n\n        // NOTE: tokenID always starts from 1, but our array starts from 0\n        buildings[_id - 1].owner = msg.sender;\n        totalSupply = totalSupply + 1;\n\n        _safeMint(msg.sender, _id);\n    }\n\n    function transferFrom(\n        address from,\n        address to,\n        uint256 tokenId\n    ) public override {\n        require(\n            _isApprovedOrOwner(_msgSender(), tokenId),\n            \"ERC721: transfer caller is not owner nor approved\"\n        );\n\n        // Update Building ownership\n        buildings[tokenId - 1].owner = to;\n\n        _transfer(from, to, tokenId);\n    }\n\n    function safeTransferFrom(\n        address from,\n        address to,\n        uint256 tokenId,\n        bytes memory _data\n    ) public override {\n        require(\n            _isApprovedOrOwner(_msgSender(), tokenId),\n            \"ERC721: transfer caller is not owner nor approved\"\n        );\n\n        // Update Building ownership\n        buildings[tokenId - 1].owner = to;\n\n        _safeTransfer(from, to, tokenId, _data);\n    }\n\n     // Public View Functions\n    function getBuildings() public view returns (Building[] memory) {\n        return buildings;\n    }\n\n    function getBuilding(uint256 _id) public view returns (Building memory) {\n        return buildings[_id - 1];\n    }\n\n}",
  "sourcePath": "/Users/dhsu47389hjhd9/Pverse City/src/contracts/Pverse.sol",
  "compiler": {
    "name": "solc",
    "version": "0.8.2+commit.661d1103.Emscripten.clang"
  },
  "schemaVersion": "3.4.5",
  "updatedAt": "2022-03-30T18:16:34.906Z",
  "networkType": "ethereum",
  "devdoc": {
    "kind": "dev",
    "methods": {
      "approve(address,uint256)": {
        "details": "See {IERC721-approve}."
      },
      "balanceOf(address)": {
        "details": "See {IERC721-balanceOf}."
      },
      "getApproved(uint256)": {
        "details": "See {IERC721-getApproved}."
      },
      "isApprovedForAll(address,address)": {
        "details": "See {IERC721-isApprovedForAll}."
      },
      "name()": {
        "details": "See {IERC721Metadata-name}."
      },
      "ownerOf(uint256)": {
        "details": "See {IERC721-ownerOf}."
      },
      "safeTransferFrom(address,address,uint256)": {
        "details": "See {IERC721-safeTransferFrom}."
      },
      "safeTransferFrom(address,address,uint256,bytes)": {
        "details": "See {IERC721-safeTransferFrom}."
      },
      "setApprovalForAll(address,bool)": {
        "details": "See {IERC721-setApprovalForAll}."
      },
      "supportsInterface(bytes4)": {
        "details": "See {IERC165-supportsInterface}."
      },
      "symbol()": {
        "details": "See {IERC721Metadata-symbol}."
      },
      "tokenURI(uint256)": {
        "details": "See {IERC721Metadata-tokenURI}."
      },
      "transferFrom(address,address,uint256)": {
        "details": "See {IERC721-transferFrom}."
      }
    },
    "version": 1
  },
  "userdoc": {
    "kind": "user",
    "methods": {},
    "version": 1
  }
}