{
  "contractName": "PulseOG",
  "abi": [
    {
      "inputs": [
        {
          "internalType": "string",
          "name": "token_name",
          "type": "string"
        },
        {
          "internalType": "string",
          "name": "short_symbol",
          "type": "string"
        },
        {
          "internalType": "uint8",
          "name": "token_decimals",
          "type": "uint8"
        },
        {
          "internalType": "uint256",
          "name": "token_totalSupply",
          "type": "uint256"
        }
      ],
      "stateMutability": "nonpayable",
      "type": "constructor"
    },
    {
      "anonymous": false,
      "inputs": [
        {
          "indexed": true,
          "internalType": "address",
          "name": "owner",
          "type": "address"
        },
        {
          "indexed": true,
          "internalType": "address",
          "name": "spender",
          "type": "address"
        },
        {
          "indexed": false,
          "internalType": "uint256",
          "name": "value",
          "type": "uint256"
        }
      ],
      "name": "Approval",
      "type": "event"
    },
    {
      "anonymous": false,
      "inputs": [
        {
          "indexed": true,
          "internalType": "address",
          "name": "previousOwner",
          "type": "address"
        },
        {
          "indexed": true,
          "internalType": "address",
          "name": "newOwner",
          "type": "address"
        }
      ],
      "name": "OwnershipTransferred",
      "type": "event"
    },
    {
      "anonymous": false,
      "inputs": [
        {
          "indexed": true,
          "internalType": "address",
          "name": "user",
          "type": "address"
        },
        {
          "indexed": false,
          "internalType": "uint256",
          "name": "amount",
          "type": "uint256"
        },
        {
          "indexed": false,
          "internalType": "uint256",
          "name": "index",
          "type": "uint256"
        },
        {
          "indexed": false,
          "internalType": "uint256",
          "name": "timestamp",
          "type": "uint256"
        }
      ],
      "name": "Staked",
      "type": "event"
    },
    {
      "anonymous": false,
      "inputs": [
        {
          "indexed": true,
          "internalType": "address",
          "name": "from",
          "type": "address"
        },
        {
          "indexed": true,
          "internalType": "address",
          "name": "to",
          "type": "address"
        },
        {
          "indexed": false,
          "internalType": "uint256",
          "name": "value",
          "type": "uint256"
        }
      ],
      "name": "Transfer",
      "type": "event"
    },
    {
      "inputs": [],
      "name": "getMyStakes",
      "outputs": [
        {
          "components": [
            {
              "internalType": "uint256",
              "name": "_amount",
              "type": "uint256"
            },
            {
              "internalType": "uint256",
              "name": "index",
              "type": "uint256"
            },
            {
              "internalType": "uint256",
              "name": "timestamp",
              "type": "uint256"
            }
          ],
          "internalType": "struct Stakeable.StakeStruct[]",
          "name": "",
          "type": "tuple[]"
        }
      ],
      "stateMutability": "view",
      "type": "function",
      "constant": true
    },
    {
      "inputs": [
        {
          "internalType": "address",
          "name": "_staker",
          "type": "address"
        }
      ],
      "name": "hasStake",
      "outputs": [
        {
          "components": [
            {
              "internalType": "uint256",
              "name": "total_amount",
              "type": "uint256"
            },
            {
              "components": [
                {
                  "internalType": "address",
                  "name": "user",
                  "type": "address"
                },
                {
                  "internalType": "uint256",
                  "name": "amount",
                  "type": "uint256"
                },
                {
                  "internalType": "uint256",
                  "name": "since",
                  "type": "uint256"
                },
                {
                  "internalType": "uint256",
                  "name": "claimable",
                  "type": "uint256"
                }
              ],
              "internalType": "struct Stakeable.Stake[]",
              "name": "stakes",
              "type": "tuple[]"
            }
          ],
          "internalType": "struct Stakeable.StakingSummary",
          "name": "",
          "type": "tuple"
        }
      ],
      "stateMutability": "view",
      "type": "function",
      "constant": true
    },
    {
      "inputs": [],
      "name": "owner",
      "outputs": [
        {
          "internalType": "address",
          "name": "",
          "type": "address"
        }
      ],
      "stateMutability": "view",
      "type": "function",
      "constant": true
    },
    {
      "inputs": [],
      "name": "renounceOwnership",
      "outputs": [],
      "stateMutability": "nonpayable",
      "type": "function"
    },
    {
      "inputs": [
        {
          "internalType": "address",
          "name": "newOwner",
          "type": "address"
        }
      ],
      "name": "transferOwnership",
      "outputs": [],
      "stateMutability": "nonpayable",
      "type": "function"
    },
    {
      "inputs": [],
      "name": "decimals",
      "outputs": [
        {
          "internalType": "uint8",
          "name": "",
          "type": "uint8"
        }
      ],
      "stateMutability": "view",
      "type": "function",
      "constant": true
    },
    {
      "inputs": [],
      "name": "symbol",
      "outputs": [
        {
          "internalType": "string",
          "name": "",
          "type": "string"
        }
      ],
      "stateMutability": "view",
      "type": "function",
      "constant": true
    },
    {
      "inputs": [],
      "name": "name",
      "outputs": [
        {
          "internalType": "string",
          "name": "",
          "type": "string"
        }
      ],
      "stateMutability": "view",
      "type": "function",
      "constant": true
    },
    {
      "inputs": [],
      "name": "totalSupply",
      "outputs": [
        {
          "internalType": "uint256",
          "name": "",
          "type": "uint256"
        }
      ],
      "stateMutability": "view",
      "type": "function",
      "constant": true
    },
    {
      "inputs": [
        {
          "internalType": "address",
          "name": "account",
          "type": "address"
        }
      ],
      "name": "balanceOf",
      "outputs": [
        {
          "internalType": "uint256",
          "name": "",
          "type": "uint256"
        }
      ],
      "stateMutability": "view",
      "type": "function",
      "constant": true
    },
    {
      "inputs": [
        {
          "internalType": "address",
          "name": "account",
          "type": "address"
        },
        {
          "internalType": "uint256",
          "name": "amount",
          "type": "uint256"
        }
      ],
      "name": "burn",
      "outputs": [
        {
          "internalType": "bool",
          "name": "",
          "type": "bool"
        }
      ],
      "stateMutability": "nonpayable",
      "type": "function"
    },
    {
      "inputs": [
        {
          "internalType": "address",
          "name": "account",
          "type": "address"
        },
        {
          "internalType": "uint256",
          "name": "amount",
          "type": "uint256"
        }
      ],
      "name": "mint",
      "outputs": [
        {
          "internalType": "bool",
          "name": "",
          "type": "bool"
        }
      ],
      "stateMutability": "nonpayable",
      "type": "function"
    },
    {
      "inputs": [
        {
          "internalType": "address",
          "name": "recipient",
          "type": "address"
        },
        {
          "internalType": "uint256",
          "name": "amount",
          "type": "uint256"
        }
      ],
      "name": "transfer",
      "outputs": [
        {
          "internalType": "bool",
          "name": "",
          "type": "bool"
        }
      ],
      "stateMutability": "nonpayable",
      "type": "function"
    },
    {
      "inputs": [],
      "name": "getOwner",
      "outputs": [
        {
          "internalType": "address",
          "name": "",
          "type": "address"
        }
      ],
      "stateMutability": "view",
      "type": "function",
      "constant": true
    },
    {
      "inputs": [
        {
          "internalType": "address",
          "name": "owner",
          "type": "address"
        },
        {
          "internalType": "address",
          "name": "spender",
          "type": "address"
        }
      ],
      "name": "allowance",
      "outputs": [
        {
          "internalType": "uint256",
          "name": "",
          "type": "uint256"
        }
      ],
      "stateMutability": "view",
      "type": "function",
      "constant": true
    },
    {
      "inputs": [
        {
          "internalType": "address",
          "name": "spender",
          "type": "address"
        },
        {
          "internalType": "uint256",
          "name": "amount",
          "type": "uint256"
        }
      ],
      "name": "approve",
      "outputs": [
        {
          "internalType": "bool",
          "name": "",
          "type": "bool"
        }
      ],
      "stateMutability": "nonpayable",
      "type": "function"
    },
    {
      "inputs": [
        {
          "internalType": "address",
          "name": "spender",
          "type": "address"
        },
        {
          "internalType": "address",
          "name": "recipient",
          "type": "address"
        },
        {
          "internalType": "uint256",
          "name": "amount",
          "type": "uint256"
        }
      ],
      "name": "transferFrom",
      "outputs": [
        {
          "internalType": "bool",
          "name": "",
          "type": "bool"
        }
      ],
      "stateMutability": "nonpayable",
      "type": "function"
    },
    {
      "inputs": [
        {
          "internalType": "address",
          "name": "spender",
          "type": "address"
        },
        {
          "internalType": "uint256",
          "name": "amount",
          "type": "uint256"
        }
      ],
      "name": "increaseAllowance",
      "outputs": [
        {
          "internalType": "bool",
          "name": "",
          "type": "bool"
        }
      ],
      "stateMutability": "nonpayable",
      "type": "function"
    },
    {
      "inputs": [
        {
          "internalType": "address",
          "name": "spender",
          "type": "address"
        },
        {
          "internalType": "uint256",
          "name": "amount",
          "type": "uint256"
        }
      ],
      "name": "decreaseAllowance",
      "outputs": [
        {
          "internalType": "bool",
          "name": "",
          "type": "bool"
        }
      ],
      "stateMutability": "nonpayable",
      "type": "function"
    },
    {
      "inputs": [
        {
          "internalType": "uint256",
          "name": "_amount",
          "type": "uint256"
        }
      ],
      "name": "stake",
      "outputs": [],
      "stateMutability": "nonpayable",
      "type": "function"
    },
    {
      "inputs": [
        {
          "internalType": "uint256",
          "name": "amount",
          "type": "uint256"
        },
        {
          "internalType": "uint256",
          "name": "stake_index",
          "type": "uint256"
        }
      ],
      "name": "withdrawStake",
      "outputs": [],
      "stateMutability": "nonpayable",
      "type": "function"
    }
  ],
  "bytecode": "0x6080604052620186a06003553480156200001857600080fd5b50604051620036203803806200362083398181016040528101906200003e9190620004ea565b336000806101000a81548173ffffffffffffffffffffffffffffffffffffffff021916908373ffffffffffffffffffffffffffffffffffffffff16021790555060008054906101000a900473ffffffffffffffffffffffffffffffffffffffff1673ffffffffffffffffffffffffffffffffffffffff16600073ffffffffffffffffffffffffffffffffffffffff167f8be0079c531659141344cd1fd0a4f28419497f9722a3daafe3b4186f6b6457e060405160405180910390a3600180816001815401808255809150500390600052602060002090505083600890805190602001906200012e92919062000224565b5082600790805190602001906200014792919062000224565b5081600660006101000a81548160ff021916908360ff16021790555080600581905550600554600960003373ffffffffffffffffffffffffffffffffffffffff1673ffffffffffffffffffffffffffffffffffffffff168152602001908152602001600020819055503373ffffffffffffffffffffffffffffffffffffffff16600073ffffffffffffffffffffffffffffffffffffffff167fddf252ad1be2c89b69c2b068fc378daa952ba7f163c4a11628f55a4df523b3ef600554604051620002129190620005ab565b60405180910390a3505050506200062d565b8280546200023290620005f7565b90600052602060002090601f016020900481019282620002565760008555620002a2565b82601f106200027157805160ff1916838001178555620002a2565b82800160010185558215620002a2579182015b82811115620002a157825182559160200191906001019062000284565b5b509050620002b19190620002b5565b5090565b5b80821115620002d0576000816000905550600101620002b6565b5090565b6000604051905090565b600080fd5b600080fd5b600080fd5b600080fd5b6000601f19601f8301169050919050565b7f4e487b7100000000000000000000000000000000000000000000000000000000600052604160045260246000fd5b6200033d82620002f2565b810181811067ffffffffffffffff821117156200035f576200035e62000303565b5b80604052505050565b600062000374620002d4565b905062000382828262000332565b919050565b600067ffffffffffffffff821115620003a557620003a462000303565b5b620003b082620002f2565b9050602081019050919050565b60005b83811015620003dd578082015181840152602081019050620003c0565b83811115620003ed576000848401525b50505050565b60006200040a620004048462000387565b62000368565b905082815260208101848484011115620004295762000428620002ed565b5b62000436848285620003bd565b509392505050565b600082601f830112620004565762000455620002e8565b5b815162000468848260208601620003f3565b91505092915050565b600060ff82169050919050565b620004898162000471565b81146200049557600080fd5b50565b600081519050620004a9816200047e565b92915050565b6000819050919050565b620004c481620004af565b8114620004d057600080fd5b50565b600081519050620004e481620004b9565b92915050565b60008060008060808587031215620005075762000506620002de565b5b600085015167ffffffffffffffff811115620005285762000527620002e3565b5b62000536878288016200043e565b945050602085015167ffffffffffffffff8111156200055a5762000559620002e3565b5b62000568878288016200043e565b93505060406200057b8782880162000498565b92505060606200058e87828801620004d3565b91505092959194509250565b620005a581620004af565b82525050565b6000602082019050620005c260008301846200059a565b92915050565b7f4e487b7100000000000000000000000000000000000000000000000000000000600052602260045260246000fd5b600060028204905060018216806200061057607f821691505b60208210811415620006275762000626620005c8565b5b50919050565b612fe3806200063d6000396000f3fe608060405234801561001057600080fd5b50600436106101375760003560e01c80638da5cb5b116100b8578063a694fc3a1161007c578063a694fc3a14610368578063a9059cbb14610384578063dd62ed3e146103b4578063e73e14bf146103e4578063f1fdf46914610414578063f2fde38b1461043057610137565b80638da5cb5b146102ae57806395d89b41146102cc57806397a4861a146102ea5780639dc29fac14610308578063a457c2d71461033857610137565b806339509351116100ff57806339509351146101f657806340c10f191461022657806370a0823114610256578063715018a614610286578063893d20e81461029057610137565b806306fdde031461013c578063095ea7b31461015a57806318160ddd1461018a57806323b872dd146101a8578063313ce567146101d8575b600080fd5b61014461044c565b6040516101519190612020565b60405180910390f35b610174600480360381019061016f91906120db565b6104de565b6040516101819190612136565b60405180910390f35b6101926104f5565b60405161019f9190612160565b60405180910390f35b6101c260048036038101906101bd919061217b565b6104ff565b6040516101cf9190612136565b60405180910390f35b6101e0610668565b6040516101ed91906121ea565b60405180910390f35b610210600480360381019061020b91906120db565b61067f565b60405161021d9190612136565b60405180910390f35b610240600480360381019061023b91906120db565b61071d565b60405161024d9190612136565b60405180910390f35b610270600480360381019061026b9190612205565b6107c1565b60405161027d9190612160565b60405180910390f35b61028e61080a565b005b610298610956565b6040516102a59190612241565b60405180910390f35b6102b6610965565b6040516102c39190612241565b60405180910390f35b6102d461098e565b6040516102e19190612020565b60405180910390f35b6102f2610a20565b6040516102ff919061235c565b60405180910390f35b610322600480360381019061031d91906120db565b610a9d565b60405161032f9190612136565b60405180910390f35b610352600480360381019061034d91906120db565b610b41565b60405161035f9190612136565b60405180910390f35b610382600480360381019061037d919061237e565b610bdf565b005b61039e600480360381019061039991906120db565b610c76565b6040516103ab9190612136565b60405180910390f35b6103ce60048036038101906103c991906123ab565b610c8d565b6040516103db9190612160565b60405180910390f35b6103fe60048036038101906103f99190612205565b610d14565b60405161040b919061253b565b60405180910390f35b61042e6004803603810190610429919061255d565b610f21565b005b61044a60048036038101906104459190612205565b610f3e565b005b60606008805461045b906125cc565b80601f0160208091040260200160405190810160405280929190818152602001828054610487906125cc565b80156104d45780601f106104a9576101008083540402835291602001916104d4565b820191906000526020600020905b8154815290600101906020018083116104b757829003601f168201915b5050505050905090565b60006104eb338484610fd8565b6001905092915050565b6000600554905090565b600081600a60008673ffffffffffffffffffffffffffffffffffffffff1673ffffffffffffffffffffffffffffffffffffffff16815260200190815260200160002060003373ffffffffffffffffffffffffffffffffffffffff1673ffffffffffffffffffffffffffffffffffffffff1681526020019081526020016000205410156105c0576040517f08c379a00000000000000000000000000000000000000000000000000000000081526004016105b790612670565b60405180910390fd5b6105cb8484846111a3565b61065d843384600a60008973ffffffffffffffffffffffffffffffffffffffff1673ffffffffffffffffffffffffffffffffffffffff16815260200190815260200160002060003373ffffffffffffffffffffffffffffffffffffffff1673ffffffffffffffffffffffffffffffffffffffff1681526020019081526020016000205461065891906126bf565b610fd8565b600190509392505050565b6000600660009054906101000a900460ff16905090565b6000610713338484600a60003373ffffffffffffffffffffffffffffffffffffffff1673ffffffffffffffffffffffffffffffffffffffff16815260200190815260200160002060008873ffffffffffffffffffffffffffffffffffffffff1673ffffffffffffffffffffffffffffffffffffffff1681526020019081526020016000205461070e91906126f3565b610fd8565b6001905092915050565b60003373ffffffffffffffffffffffffffffffffffffffff1660008054906101000a900473ffffffffffffffffffffffffffffffffffffffff1673ffffffffffffffffffffffffffffffffffffffff16146107ad576040517f08c379a00000000000000000000000000000000000000000000000000000000081526004016107a4906127bb565b60405180910390fd5b6107b7838361148b565b6001905092915050565b6000600960008373ffffffffffffffffffffffffffffffffffffffff1673ffffffffffffffffffffffffffffffffffffffff168152602001908152602001600020549050919050565b3373ffffffffffffffffffffffffffffffffffffffff1660008054906101000a900473ffffffffffffffffffffffffffffffffffffffff1673ffffffffffffffffffffffffffffffffffffffff1614610898576040517f08c379a000000000000000000000000000000000000000000000000000000000815260040161088f906127bb565b60405180910390fd5b600073ffffffffffffffffffffffffffffffffffffffff1660008054906101000a900473ffffffffffffffffffffffffffffffffffffffff1673ffffffffffffffffffffffffffffffffffffffff167f8be0079c531659141344cd1fd0a4f28419497f9722a3daafe3b4186f6b6457e060405160405180910390a360008060006101000a81548173ffffffffffffffffffffffffffffffffffffffff021916908373ffffffffffffffffffffffffffffffffffffffff160217905550565b6000610960610965565b905090565b60008060009054906101000a900473ffffffffffffffffffffffffffffffffffffffff16905090565b60606007805461099d906125cc565b80601f01602080910402602001604051908101604052809291908181526020018280546109c9906125cc565b8015610a165780601f106109eb57610100808354040283529160200191610a16565b820191906000526020600020905b8154815290600101906020018083116109f957829003601f168201915b5050505050905090565b60606004805480602002602001604051908101604052809291908181526020016000905b82821015610a945783829060005260206000209060030201604051806060016040529081600082015481526020016001820154815260200160028201548152505081526020019060010190610a44565b50505050905090565b60003373ffffffffffffffffffffffffffffffffffffffff1660008054906101000a900473ffffffffffffffffffffffffffffffffffffffff1673ffffffffffffffffffffffffffffffffffffffff1614610b2d576040517f08c379a0000000000000000000000000000000000000000000000000000000008152600401610b24906127bb565b60405180910390fd5b610b378383611607565b6001905092915050565b6000610bd5338484600a60003373ffffffffffffffffffffffffffffffffffffffff1673ffffffffffffffffffffffffffffffffffffffff16815260200190815260200160002060008873ffffffffffffffffffffffffffffffffffffffff1673ffffffffffffffffffffffffffffffffffffffff16815260200190815260200160002054610bd091906126bf565b610fd8565b6001905092915050565b600960003373ffffffffffffffffffffffffffffffffffffffff1673ffffffffffffffffffffffffffffffffffffffff168152602001908152602001600020548110610c60576040517f08c379a0000000000000000000000000000000000000000000000000000000008152600401610c579061284d565b60405180910390fd5b610c6981611805565b610c733382611607565b50565b6000610c833384846111a3565b6001905092915050565b6000600a60008473ffffffffffffffffffffffffffffffffffffffff1673ffffffffffffffffffffffffffffffffffffffff16815260200190815260200160002060008373ffffffffffffffffffffffffffffffffffffffff1673ffffffffffffffffffffffffffffffffffffffff16815260200190815260200160002054905092915050565b610d1c611f6d565b6000806040518060400160405280600081526020016001600260008873ffffffffffffffffffffffffffffffffffffffff1673ffffffffffffffffffffffffffffffffffffffff1681526020019081526020016000205481548110610d8457610d8361286d565b5b9060005260206000209060020201600101805480602002602001604051908101604052809291908181526020016000905b82821015610e5b57838290600052602060002090600402016040518060800160405290816000820160009054906101000a900473ffffffffffffffffffffffffffffffffffffffff1673ffffffffffffffffffffffffffffffffffffffff1673ffffffffffffffffffffffffffffffffffffffff168152602001600182015481526020016002820154815260200160038201548152505081526020019060010190610db5565b50505050815250905060005b816020015151811015610f0c576000610e9d83602001518381518110610e9057610e8f61286d565b5b6020026020010151611a50565b90508083602001518381518110610eb757610eb661286d565b5b6020026020010151606001818152505082602001518281518110610ede57610edd61286d565b5b60200260200101516020015184610ef591906126f3565b935050600181610f0591906126f3565b9050610e67565b50818160000181815250508092505050919050565b6000610f2d8383611a92565b9050610f39338261148b565b505050565b3373ffffffffffffffffffffffffffffffffffffffff1660008054906101000a900473ffffffffffffffffffffffffffffffffffffffff1673ffffffffffffffffffffffffffffffffffffffff1614610fcc576040517f08c379a0000000000000000000000000000000000000000000000000000000008152600401610fc3906127bb565b60405180910390fd5b610fd581611d5b565b50565b600073ffffffffffffffffffffffffffffffffffffffff168373ffffffffffffffffffffffffffffffffffffffff161415611048576040517f08c379a000000000000000000000000000000000000000000000000000000000815260040161103f9061290e565b60405180910390fd5b600073ffffffffffffffffffffffffffffffffffffffff168273ffffffffffffffffffffffffffffffffffffffff1614156110b8576040517f08c379a00000000000000000000000000000000000000000000000000000000081526004016110af906129a0565b60405180910390fd5b80600a60008573ffffffffffffffffffffffffffffffffffffffff1673ffffffffffffffffffffffffffffffffffffffff16815260200190815260200160002060008473ffffffffffffffffffffffffffffffffffffffff1673ffffffffffffffffffffffffffffffffffffffff168152602001908152602001600020819055508173ffffffffffffffffffffffffffffffffffffffff168373ffffffffffffffffffffffffffffffffffffffff167f8c5be1e5ebec7d5bd14f71427d1e84f3dd0314c0f7b2291e5b200ac8c7c3b925836040516111969190612160565b60405180910390a3505050565b600073ffffffffffffffffffffffffffffffffffffffff168373ffffffffffffffffffffffffffffffffffffffff161415611213576040517f08c379a000000000000000000000000000000000000000000000000000000000815260040161120a90612a32565b60405180910390fd5b600073ffffffffffffffffffffffffffffffffffffffff168273ffffffffffffffffffffffffffffffffffffffff161415611283576040517f08c379a000000000000000000000000000000000000000000000000000000000815260040161127a90612ac4565b60405180910390fd5b80600960008573ffffffffffffffffffffffffffffffffffffffff1673ffffffffffffffffffffffffffffffffffffffff168152602001908152602001600020541015611305576040517f08c379a00000000000000000000000000000000000000000000000000000000081526004016112fc90612b56565b60405180910390fd5b80600960008573ffffffffffffffffffffffffffffffffffffffff1673ffffffffffffffffffffffffffffffffffffffff1681526020019081526020016000205461135091906126bf565b600960008573ffffffffffffffffffffffffffffffffffffffff1673ffffffffffffffffffffffffffffffffffffffff1681526020019081526020016000208190555080600960008473ffffffffffffffffffffffffffffffffffffffff1673ffffffffffffffffffffffffffffffffffffffff168152602001908152602001600020546113de91906126f3565b600960008473ffffffffffffffffffffffffffffffffffffffff1673ffffffffffffffffffffffffffffffffffffffff168152602001908152602001600020819055508173ffffffffffffffffffffffffffffffffffffffff168373ffffffffffffffffffffffffffffffffffffffff167fddf252ad1be2c89b69c2b068fc378daa952ba7f163c4a11628f55a4df523b3ef8360405161147e9190612160565b60405180910390a3505050565b600073ffffffffffffffffffffffffffffffffffffffff168273ffffffffffffffffffffffffffffffffffffffff1614156114fb576040517f08c379a00000000000000000000000000000000000000000000000000000000081526004016114f290612be8565b60405180910390fd5b8060055461150991906126f3565b60058190555080600960008473ffffffffffffffffffffffffffffffffffffffff1673ffffffffffffffffffffffffffffffffffffffff1681526020019081526020016000205461155a91906126f3565b600960008473ffffffffffffffffffffffffffffffffffffffff1673ffffffffffffffffffffffffffffffffffffffff168152602001908152602001600020819055508173ffffffffffffffffffffffffffffffffffffffff16600073ffffffffffffffffffffffffffffffffffffffff167fddf252ad1be2c89b69c2b068fc378daa952ba7f163c4a11628f55a4df523b3ef836040516115fb9190612160565b60405180910390a35050565b600073ffffffffffffffffffffffffffffffffffffffff168273ffffffffffffffffffffffffffffffffffffffff161415611677576040517f08c379a000000000000000000000000000000000000000000000000000000000815260040161166e90612c7a565b60405180910390fd5b80600960008473ffffffffffffffffffffffffffffffffffffffff1673ffffffffffffffffffffffffffffffffffffffff1681526020019081526020016000205410156116f9576040517f08c379a00000000000000000000000000000000000000000000000000000000081526004016116f090612d0c565b60405180910390fd5b80600960008473ffffffffffffffffffffffffffffffffffffffff1673ffffffffffffffffffffffffffffffffffffffff1681526020019081526020016000205461174491906126bf565b600960008473ffffffffffffffffffffffffffffffffffffffff1673ffffffffffffffffffffffffffffffffffffffff168152602001908152602001600020819055508060055461179591906126bf565b600581905550600073ffffffffffffffffffffffffffffffffffffffff168273ffffffffffffffffffffffffffffffffffffffff167fddf252ad1be2c89b69c2b068fc378daa952ba7f163c4a11628f55a4df523b3ef836040516117f99190612160565b60405180910390a35050565b60008111611848576040517f08c379a000000000000000000000000000000000000000000000000000000000815260040161183f90612d78565b60405180910390fd5b6000600260003373ffffffffffffffffffffffffffffffffffffffff1673ffffffffffffffffffffffffffffffffffffffff168152602001908152602001600020549050600042905060008214156118a6576118a333611e88565b91505b600182815481106118ba576118b961286d565b5b906000526020600020906002020160010160405180608001604052803373ffffffffffffffffffffffffffffffffffffffff1681526020018581526020018381526020016000815250908060018154018082558091505060019003906000526020600020906004020160009091909190915060008201518160000160006101000a81548173ffffffffffffffffffffffffffffffffffffffff021916908373ffffffffffffffffffffffffffffffffffffffff16021790555060208201518160010155604082015181600201556060820151816003015550506004604051806060016040528085815260200184815260200183815250908060018154018082558091505060019003906000526020600020906003020160009091909190915060008201518160000155602082015181600101556040820151816002015550503373ffffffffffffffffffffffffffffffffffffffff167fb4caaf29adda3eefee3ad552a8e85058589bf834c7466cae4ee58787f70589ed848484604051611a4393929190612d98565b60405180910390a2505050565b60006003548260200151610e10846040015142611a6d91906126bf565b611a779190612dfe565b611a819190612e2f565b611a8b9190612dfe565b9050919050565b600080600260003373ffffffffffffffffffffffffffffffffffffffff1673ffffffffffffffffffffffffffffffffffffffff168152602001908152602001600020549050600060018281548110611aed57611aec61286d565b5b90600052602060002090600202016001018481548110611b1057611b0f61286d565b5b90600052602060002090600402016040518060800160405290816000820160009054906101000a900473ffffffffffffffffffffffffffffffffffffffff1673ffffffffffffffffffffffffffffffffffffffff1673ffffffffffffffffffffffffffffffffffffffff168152602001600182015481526020016002820154815260200160038201548152505090508481602001511015611be6576040517f08c379a0000000000000000000000000000000000000000000000000000000008152600401611bdd90612efb565b60405180910390fd5b6000611bf182611a50565b9050858260200151611c0391906126bf565b826020018181525050600082602001511415611ca55760018381548110611c2d57611c2c61286d565b5b90600052602060002090600202016001018581548110611c5057611c4f61286d565b5b9060005260206000209060040201600080820160006101000a81549073ffffffffffffffffffffffffffffffffffffffff02191690556001820160009055600282016000905560038201600090555050611d44565b816020015160018481548110611cbe57611cbd61286d565b5b90600052602060002090600202016001018681548110611ce157611ce061286d565b5b9060005260206000209060040201600101819055504260018481548110611d0b57611d0a61286d565b5b90600052602060002090600202016001018681548110611d2e57611d2d61286d565b5b9060005260206000209060040201600201819055505b8086611d5091906126f3565b935050505092915050565b600073ffffffffffffffffffffffffffffffffffffffff168173ffffffffffffffffffffffffffffffffffffffff161415611dcb576040517f08c379a0000000000000000000000000000000000000000000000000000000008152600401611dc290612f8d565b60405180910390fd5b8073ffffffffffffffffffffffffffffffffffffffff1660008054906101000a900473ffffffffffffffffffffffffffffffffffffffff1673ffffffffffffffffffffffffffffffffffffffff167f8be0079c531659141344cd1fd0a4f28419497f9722a3daafe3b4186f6b6457e060405160405180910390a3806000806101000a81548173ffffffffffffffffffffffffffffffffffffffff021916908373ffffffffffffffffffffffffffffffffffffffff16021790555050565b60006001808160018154018082558091505003906000526020600020905050600060018080549050611eba91906126bf565b90508260018281548110611ed157611ed061286d565b5b906000526020600020906002020160000160006101000a81548173ffffffffffffffffffffffffffffffffffffffff021916908373ffffffffffffffffffffffffffffffffffffffff16021790555080600260008573ffffffffffffffffffffffffffffffffffffffff1673ffffffffffffffffffffffffffffffffffffffff1681526020019081526020016000208190555080915050919050565b604051806040016040528060008152602001606081525090565b600081519050919050565b600082825260208201905092915050565b60005b83811015611fc1578082015181840152602081019050611fa6565b83811115611fd0576000848401525b50505050565b6000601f19601f8301169050919050565b6000611ff282611f87565b611ffc8185611f92565b935061200c818560208601611fa3565b61201581611fd6565b840191505092915050565b6000602082019050818103600083015261203a8184611fe7565b905092915050565b600080fd5b600073ffffffffffffffffffffffffffffffffffffffff82169050919050565b600061207282612047565b9050919050565b61208281612067565b811461208d57600080fd5b50565b60008135905061209f81612079565b92915050565b6000819050919050565b6120b8816120a5565b81146120c357600080fd5b50565b6000813590506120d5816120af565b92915050565b600080604083850312156120f2576120f1612042565b5b600061210085828601612090565b9250506020612111858286016120c6565b9150509250929050565b60008115159050919050565b6121308161211b565b82525050565b600060208201905061214b6000830184612127565b92915050565b61215a816120a5565b82525050565b60006020820190506121756000830184612151565b92915050565b60008060006060848603121561219457612193612042565b5b60006121a286828701612090565b93505060206121b386828701612090565b92505060406121c4868287016120c6565b9150509250925092565b600060ff82169050919050565b6121e4816121ce565b82525050565b60006020820190506121ff60008301846121db565b92915050565b60006020828403121561221b5761221a612042565b5b600061222984828501612090565b91505092915050565b61223b81612067565b82525050565b60006020820190506122566000830184612232565b92915050565b600081519050919050565b600082825260208201905092915050565b6000819050602082019050919050565b612291816120a5565b82525050565b6060820160008201516122ad6000850182612288565b5060208201516122c06020850182612288565b5060408201516122d36040850182612288565b50505050565b60006122e58383612297565b60608301905092915050565b6000602082019050919050565b60006123098261225c565b6123138185612267565b935061231e83612278565b8060005b8381101561234f57815161233688826122d9565b9750612341836122f1565b925050600181019050612322565b5085935050505092915050565b6000602082019050818103600083015261237681846122fe565b905092915050565b60006020828403121561239457612393612042565b5b60006123a2848285016120c6565b91505092915050565b600080604083850312156123c2576123c1612042565b5b60006123d085828601612090565b92505060206123e185828601612090565b9150509250929050565b600081519050919050565b600082825260208201905092915050565b6000819050602082019050919050565b61242081612067565b82525050565b60808201600082015161243c6000850182612417565b50602082015161244f6020850182612288565b5060408201516124626040850182612288565b5060608201516124756060850182612288565b50505050565b60006124878383612426565b60808301905092915050565b6000602082019050919050565b60006124ab826123eb565b6124b581856123f6565b93506124c083612407565b8060005b838110156124f15781516124d8888261247b565b97506124e383612493565b9250506001810190506124c4565b5085935050505092915050565b60006040830160008301516125166000860182612288565b506020830151848203602086015261252e82826124a0565b9150508091505092915050565b6000602082019050818103600083015261255581846124fe565b905092915050565b6000806040838503121561257457612573612042565b5b6000612582858286016120c6565b9250506020612593858286016120c6565b9150509250929050565b7f4e487b7100000000000000000000000000000000000000000000000000000000600052602260045260246000fd5b600060028204905060018216806125e457607f821691505b602082108114156125f8576125f761259d565b5b50919050565b7f50756c73654f473a20596f752063616e6e6f74207370656e642074686174206d60008201527f756368206f6e2074686973206163636f756e7400000000000000000000000000602082015250565b600061265a603383611f92565b9150612665826125fe565b604082019050919050565b600060208201905081810360008301526126898161264d565b9050919050565b7f4e487b7100000000000000000000000000000000000000000000000000000000600052601160045260246000fd5b60006126ca826120a5565b91506126d5836120a5565b9250828210156126e8576126e7612690565b5b828203905092915050565b60006126fe826120a5565b9150612709836120a5565b9250827fffffffffffffffffffffffffffffffffffffffffffffffffffffffffffffffff0382111561273e5761273d612690565b5b828201905092915050565b7f4f776e61626c653a206f6e6c79206f776e65722063616e2063616c6c2074686960008201527f732066756e6374696f6e00000000000000000000000000000000000000000000602082015250565b60006127a5602a83611f92565b91506127b082612749565b604082019050919050565b600060208201905081810360008301526127d481612798565b9050919050565b7f50756c73654f473a2043616e6e6f74207374616b65206d6f7265207468616e2060008201527f796f75206f776e00000000000000000000000000000000000000000000000000602082015250565b6000612837602783611f92565b9150612842826127db565b604082019050919050565b600060208201905081810360008301526128668161282a565b9050919050565b7f4e487b7100000000000000000000000000000000000000000000000000000000600052603260045260246000fd5b7f50756c73654f473a20617070726f76652063616e6e6f7420626520646f6e652060008201527f66726f6d207a65726f2061646472657373000000000000000000000000000000602082015250565b60006128f8603183611f92565b91506129038261289c565b604082019050919050565b60006020820190508181036000830152612927816128eb565b9050919050565b7f50756c73654f473a20617070726f76652063616e6e6f7420626520746f207a6560008201527f726f206164647265737300000000000000000000000000000000000000000000602082015250565b600061298a602a83611f92565b91506129958261292e565b604082019050919050565b600060208201905081810360008301526129b98161297d565b9050919050565b7f50756c73654f473a207472616e736665722066726f6d207a65726f206164647260008201527f6573730000000000000000000000000000000000000000000000000000000000602082015250565b6000612a1c602383611f92565b9150612a27826129c0565b604082019050919050565b60006020820190508181036000830152612a4b81612a0f565b9050919050565b7f50756c73654f473a207472616e7366657220746f207a65726f2061646472657360008201527f7300000000000000000000000000000000000000000000000000000000000000602082015250565b6000612aae602183611f92565b9150612ab982612a52565b604082019050919050565b60006020820190508181036000830152612add81612aa1565b9050919050565b7f50756c73654f473a2063616e74207472616e73666572206d6f7265207468616e60008201527f20796f7572206163636f756e7420686f6c647300000000000000000000000000602082015250565b6000612b40603383611f92565b9150612b4b82612ae4565b604082019050919050565b60006020820190508181036000830152612b6f81612b33565b9050919050565b7f50756c73654f473a2063616e6e6f74206d696e7420746f207a65726f2061646460008201527f7265737300000000000000000000000000000000000000000000000000000000602082015250565b6000612bd2602483611f92565b9150612bdd82612b76565b604082019050919050565b60006020820190508181036000830152612c0181612bc5565b9050919050565b7f50756c73654f473a2063616e6e6f74206275726e2066726f6d207a65726f206160008201527f6464726573730000000000000000000000000000000000000000000000000000602082015250565b6000612c64602683611f92565b9150612c6f82612c08565b604082019050919050565b60006020820190508181036000830152612c9381612c57565b9050919050565b7f50756c73654f473a2043616e6e6f74206275726e206d6f7265207468616e207460008201527f6865206163636f756e74206f776e730000000000000000000000000000000000602082015250565b6000612cf6602f83611f92565b9150612d0182612c9a565b604082019050919050565b60006020820190508181036000830152612d2581612ce9565b9050919050565b7f43616e6e6f74207374616b65206e616461000000000000000000000000000000600082015250565b6000612d62601183611f92565b9150612d6d82612d2c565b602082019050919050565b60006020820190508181036000830152612d9181612d55565b9050919050565b6000606082019050612dad6000830186612151565b612dba6020830185612151565b612dc76040830184612151565b949350505050565b7f4e487b7100000000000000000000000000000000000000000000000000000000600052601260045260246000fd5b6000612e09826120a5565b9150612e14836120a5565b925082612e2457612e23612dcf565b5b828204905092915050565b6000612e3a826120a5565b9150612e45836120a5565b9250817fffffffffffffffffffffffffffffffffffffffffffffffffffffffffffffffff0483118215151615612e7e57612e7d612690565b5b828202905092915050565b7f5374616b696e673a2043616e6e6f74207769746864726177206d6f726520746860008201527f616e20796f752068617665207374616b65642073696c6c792062696c6c790000602082015250565b6000612ee5603e83611f92565b9150612ef082612e89565b604082019050919050565b60006020820190508181036000830152612f1481612ed8565b9050919050565b7f4f776e61626c653a206e6577206f776e657220697320746865207a65726f206160008201527f6464726573730000000000000000000000000000000000000000000000000000602082015250565b6000612f77602683611f92565b9150612f8282612f1b565b604082019050919050565b60006020820190508181036000830152612fa681612f6a565b905091905056fea2646970667358221220c6ba4c8a87041edd805dc1c2683361c8e48b5889cca46ccb0db37390d4a550af64736f6c63430008090033",
  "immutableReferences": {},
  "source": "// SPDX-License-Identifier: MIT\npragma solidity ^0.8.4;\n\n// blockchains are speech and speech is a protected human right.\n\nimport \"./Ownable.sol\"; \nimport \"./Stakeable.sol\";\n\ncontract PulseOG is Ownable, Stakeable{\n  \n \n  uint private _totalSupply;\n  uint8 private _decimals;\n  string private _symbol;\n  string private _name;\n\n \n  mapping (address => uint256) private _balances;\n \n   mapping (address => mapping (address => uint256)) private _allowances;\n\n  \n  event Transfer(address indexed from, address indexed to, uint256 value);\n  \n  event Approval(address indexed owner, address indexed spender, uint256 value);\n\n \n  constructor(string memory token_name, string memory short_symbol, uint8 token_decimals, uint256 token_totalSupply){\n      _name = token_name;\n      _symbol = short_symbol;\n      _decimals = token_decimals;\n      _totalSupply = token_totalSupply;\n\n      _balances[msg.sender] = _totalSupply;\n\n     \n      emit Transfer(address(0), msg.sender, _totalSupply);\n  }\n \n  function decimals() external view returns (uint8) {\n    return _decimals;\n  }\n \n  function symbol() external view returns (string memory){\n    return _symbol;\n  }\n  \n  function name() external view returns (string memory){\n    return _name;\n  }\n \n  function totalSupply() external view returns (uint256){\n    return _totalSupply;\n  }\n \n  function balanceOf(address account) external view returns (uint256) {\n    return _balances[account];\n  }\n\n\n  function _mint(address account, uint256 amount) internal {\n    require(account != address(0), \"PulseOG: cannot mint to zero address\");\n\n   \n    _totalSupply = _totalSupply + (amount);\n    \n    _balances[account] = _balances[account] + amount;\n    \n    emit Transfer(address(0), account, amount);\n  }\n  \n  \n  function _burn(address account, uint256 amount) internal {\n    require(account != address(0), \"PulseOG: cannot burn from zero address\");\n    require(_balances[account] >= amount, \"PulseOG: Cannot burn more than the account owns\");\n\n    \n    _balances[account] = _balances[account] - amount;\n    \n    _totalSupply = _totalSupply - amount;\n    \n    emit Transfer(account, address(0), amount);\n  }\n  \n  function burn(address account, uint256 amount) public onlyOwner returns(bool) {\n    _burn(account, amount);\n    return true;\n    \n    \n  }\n\n\n  function mint(address account, uint256 amount) public onlyOwner returns(bool){\n    _mint(account, amount);\n    return true;\n  }\n\n\n  function transfer(address recipient, uint256 amount) external returns (bool) {\n    _transfer(msg.sender, recipient, amount);\n    return true;\n  }\n\n  function _transfer(address sender, address recipient, uint256 amount) internal {\n    require(sender != address(0), \"PulseOG: transfer from zero address\");\n    require(recipient != address(0), \"PulseOG: transfer to zero address\");\n    require(_balances[sender] >= amount, \"PulseOG: cant transfer more than your account holds\");\n\n    _balances[sender] = _balances[sender] - amount;\n    _balances[recipient] = _balances[recipient] + amount;\n    \n    emit Transfer(sender, recipient, amount);\n  }\n \n  function getOwner() external view returns (address) {\n    return owner();\n  }\n  \n   function allowance(address owner, address spender) external view returns(uint256){\n     return _allowances[owner][spender];\n   }\n  \n   function approve(address spender, uint256 amount) external returns (bool) {\n     _approve(msg.sender, spender, amount);\n     return true;\n   }\n\n\n    function _approve(address owner, address spender, uint256 amount) internal {\n      require(owner != address(0), \"PulseOG: approve cannot be done from zero address\");\n      require(spender != address(0), \"PulseOG: approve cannot be to zero address\");\n      \n      _allowances[owner][spender] = amount;\n\n      emit Approval(owner,spender,amount);\n    }\n    \n    function transferFrom(address spender, address recipient, uint256 amount) external returns(bool){\n      \n      require(_allowances[spender][msg.sender] >= amount, \"PulseOG: You cannot spend that much on this account\");\n      \n      _transfer(spender, recipient, amount);\n     \n      _approve(spender, msg.sender, _allowances[spender][msg.sender] - amount);\n      return true;\n    }\n \n    function increaseAllowance(address spender, uint256 amount) public returns (bool) {\n      _approve(msg.sender, spender, _allowances[msg.sender][spender]+amount);\n      return true;\n    }\n \n    function decreaseAllowance(address spender, uint256 amount) public returns (bool) {\n      _approve(msg.sender, spender, _allowances[msg.sender][spender]-amount);\n      return true;\n    }\n\n    \n    function stake(uint256 _amount) public {\n      \n      \n      require(_amount < _balances[msg.sender], \"PulseOG: Cannot stake more than you own\");\n\n        _stake(_amount);\n               \n        _burn(msg.sender, _amount);\n        \n    }\n\n   \n    function withdrawStake(uint256 amount, uint256 stake_index)  public {\n\n      uint256 amount_to_mint = _withdrawStake(amount, stake_index);\n      \n      _mint(msg.sender, amount_to_mint);\n    }\n\n\n}\n",
  "sourcePath": "/Users/dhsu47389hjhd9/pulseog_staking_readout_copy /contracts/PulseOG.sol",
  "compiler": {
    "name": "solc",
    "version": "0.8.9+commit.e5eed63a.Emscripten.clang"
  },
  "schemaVersion": "3.4.6",
  "updatedAt": "2022-06-18T00:51:48.327Z",
  "networkType": "ethereum",
  "devdoc": {
    "kind": "dev",
    "methods": {},
    "version": 1
  },
  "userdoc": {
    "events": {
      "OwnershipTransferred(address,address)": {
        "notice": "Event OwnershipTransferred is used to log that a ownership change of the token has occured"
      }
    },
    "kind": "user",
    "methods": {
      "owner()": {
        "notice": "owner() returns the currently assigned owner of the Token "
      },
      "renounceOwnership()": {
        "notice": "renounceOwnership will set the owner to zero address This will make the contract owner less, It will make ALL functions with onlyOwner no longer callable. There is no way of restoring the owner"
      },
      "transferOwnership(address)": {
        "notice": "transferOwnership will assign the {newOwner} as owner"
      }
    },
    "version": 1
  }
}