{
  "contractName": "Stakeable",
  "abi": [
    {
      "inputs": [],
      "stateMutability": "nonpayable",
      "type": "constructor"
    },
    {
      "anonymous": false,
      "inputs": [
        {
          "indexed": true,
          "internalType": "address",
          "name": "user",
          "type": "address"
        },
        {
          "indexed": false,
          "internalType": "uint256",
          "name": "amount",
          "type": "uint256"
        },
        {
          "indexed": false,
          "internalType": "uint256",
          "name": "index",
          "type": "uint256"
        },
        {
          "indexed": false,
          "internalType": "uint256",
          "name": "timestamp",
          "type": "uint256"
        }
      ],
      "name": "Staked",
      "type": "event"
    },
    {
      "inputs": [
        {
          "internalType": "address",
          "name": "_staker",
          "type": "address"
        }
      ],
      "name": "hasStake",
      "outputs": [
        {
          "components": [
            {
              "internalType": "uint256",
              "name": "total_amount",
              "type": "uint256"
            },
            {
              "components": [
                {
                  "internalType": "address",
                  "name": "user",
                  "type": "address"
                },
                {
                  "internalType": "uint256",
                  "name": "amount",
                  "type": "uint256"
                },
                {
                  "internalType": "uint256",
                  "name": "since",
                  "type": "uint256"
                },
                {
                  "internalType": "uint256",
                  "name": "claimable",
                  "type": "uint256"
                }
              ],
              "internalType": "struct Stakeable.Stake[]",
              "name": "stakes",
              "type": "tuple[]"
            }
          ],
          "internalType": "struct Stakeable.StakingSummary",
          "name": "",
          "type": "tuple"
        }
      ],
      "stateMutability": "view",
      "type": "function"
    },
    {
      "inputs": [],
      "name": "getMyStakes",
      "outputs": [
        {
          "components": [
            {
              "internalType": "uint256",
              "name": "_amount",
              "type": "uint256"
            },
            {
              "internalType": "uint256",
              "name": "index",
              "type": "uint256"
            },
            {
              "internalType": "uint256",
              "name": "timestamp",
              "type": "uint256"
            }
          ],
          "internalType": "struct Stakeable.StakeStruct[]",
          "name": "",
          "type": "tuple[]"
        }
      ],
      "stateMutability": "view",
      "type": "function"
    }
  ],
  "bytecode": "0x6080604052620186a060025534801561001757600080fd5b50600060018160018154018082558091505003906000526020600020905050610875806100456000396000f3fe608060405234801561001057600080fd5b50600436106100365760003560e01c806397a4861a1461003b578063e73e14bf14610059575b600080fd5b610043610089565b6040516100509190610479565b60405180910390f35b610073600480360381019061006e91906104fe565b610106565b604051610080919061067b565b60405180910390f35b60606003805480602002602001604051908101604052809291908181526020016000905b828210156100fd57838290600052602060002090600302016040518060600160405290816000820154815260200160018201548152602001600282015481525050815260200190600101906100ad565b50505050905090565b61010e610355565b6000806040518060400160405280600081526020016000600160008873ffffffffffffffffffffffffffffffffffffffff1673ffffffffffffffffffffffffffffffffffffffff16815260200190815260200160002054815481106101765761017561069d565b5b9060005260206000209060020201600101805480602002602001604051908101604052809291908181526020016000905b8282101561024d57838290600052602060002090600402016040518060800160405290816000820160009054906101000a900473ffffffffffffffffffffffffffffffffffffffff1673ffffffffffffffffffffffffffffffffffffffff1673ffffffffffffffffffffffffffffffffffffffff1681526020016001820154815260200160028201548152602001600382015481525050815260200190600101906101a7565b50505050815250905060005b8160200151518110156102fe57600061028f836020015183815181106102825761028161069d565b5b6020026020010151610313565b905080836020015183815181106102a9576102a861069d565b5b60200260200101516060018181525050826020015182815181106102d0576102cf61069d565b5b602002602001015160200151846102e791906106fb565b9350506001816102f791906106fb565b9050610259565b50818160000181815250508092505050919050565b60006002548260200151610e108460400151426103309190610751565b61033a91906107b4565b61034491906107e5565b61034e91906107b4565b9050919050565b604051806040016040528060008152602001606081525090565b600081519050919050565b600082825260208201905092915050565b6000819050602082019050919050565b6000819050919050565b6103ae8161039b565b82525050565b6060820160008201516103ca60008501826103a5565b5060208201516103dd60208501826103a5565b5060408201516103f060408501826103a5565b50505050565b600061040283836103b4565b60608301905092915050565b6000602082019050919050565b60006104268261036f565b610430818561037a565b935061043b8361038b565b8060005b8381101561046c57815161045388826103f6565b975061045e8361040e565b92505060018101905061043f565b5085935050505092915050565b60006020820190508181036000830152610493818461041b565b905092915050565b600080fd5b600073ffffffffffffffffffffffffffffffffffffffff82169050919050565b60006104cb826104a0565b9050919050565b6104db816104c0565b81146104e657600080fd5b50565b6000813590506104f8816104d2565b92915050565b6000602082840312156105145761051361049b565b5b6000610522848285016104e9565b91505092915050565b600081519050919050565b600082825260208201905092915050565b6000819050602082019050919050565b610560816104c0565b82525050565b60808201600082015161057c6000850182610557565b50602082015161058f60208501826103a5565b5060408201516105a260408501826103a5565b5060608201516105b560608501826103a5565b50505050565b60006105c78383610566565b60808301905092915050565b6000602082019050919050565b60006105eb8261052b565b6105f58185610536565b935061060083610547565b8060005b8381101561063157815161061888826105bb565b9750610623836105d3565b925050600181019050610604565b5085935050505092915050565b600060408301600083015161065660008601826103a5565b506020830151848203602086015261066e82826105e0565b9150508091505092915050565b60006020820190508181036000830152610695818461063e565b905092915050565b7f4e487b7100000000000000000000000000000000000000000000000000000000600052603260045260246000fd5b7f4e487b7100000000000000000000000000000000000000000000000000000000600052601160045260246000fd5b60006107068261039b565b91506107118361039b565b9250827fffffffffffffffffffffffffffffffffffffffffffffffffffffffffffffffff03821115610746576107456106cc565b5b828201905092915050565b600061075c8261039b565b91506107678361039b565b92508282101561077a576107796106cc565b5b828203905092915050565b7f4e487b7100000000000000000000000000000000000000000000000000000000600052601260045260246000fd5b60006107bf8261039b565b91506107ca8361039b565b9250826107da576107d9610785565b5b828204905092915050565b60006107f08261039b565b91506107fb8361039b565b9250817fffffffffffffffffffffffffffffffffffffffffffffffffffffffffffffffff0483118215151615610834576108336106cc565b5b82820290509291505056fea26469706673582212209090f535ec983cf59ff1051f9f3e98a7f7e9e5c16b78ca90cce8bed7d87782c664736f6c63430008090033",
  "immutableReferences": {},
  "source": "// SPDX-License-Identifier: MIT\npragma solidity ^0.8.4;\n\n\ncontract Stakeable {\n \n       \n    constructor() { \n        \n        stakeholders.push();\n        \n    }\n    \n    struct Stake{\n        address user;\n        uint256 amount;\n        uint256 since;\n        uint256 claimable;\n    }   \n  \n\n    struct Stakeholder{\n        address user;\n        Stake[] address_stakes;\n        \n    }\n\n    \n     struct StakingSummary{\n         uint256 total_amount;\n         Stake[] stakes;\n     }\n\n\n    \n    Stakeholder[] internal stakeholders;\n    \n    mapping(address => uint256) internal stakes;\n   \n     event Staked(address indexed user, uint256 amount, uint256 index, uint256 timestamp);\n\n   \n    uint256 internal rewardPerHour = 100000;\n\n    \n    function _addStakeholder(address staker) internal returns (uint256){\n        \n        stakeholders.push();\n        \n        uint256 userIndex = stakeholders.length - 1;\n        \n        stakeholders[userIndex].user = staker;\n        \n        stakes[staker] = userIndex;\n        return userIndex; \n    }\n\n    StakeStruct[] transactions;\n    function _stake(uint256 _amount) internal{\n         \n        require(_amount > 0, \"Cannot stake nada\");\n        \n        \n        uint256 index = stakes[msg.sender];\n        \n        uint256 timestamp = block.timestamp;\n        \n        if(index == 0){\n           \n            index = _addStakeholder(msg.sender);\n        }\n\n        \n        stakeholders[index].address_stakes.push(Stake(msg.sender, _amount, timestamp,0));\n        transactions.push(StakeStruct(_amount, index, timestamp));\n        emit Staked(msg.sender, _amount, index,timestamp); \n    }\n\n    \n      function calculateStakeReward(Stake memory _current_stake) internal view returns(uint256){\n         \n          return (((block.timestamp - _current_stake.since) / 1 hours) * _current_stake.amount) / rewardPerHour;\n          \n      }\n\n    \n     function _withdrawStake(uint256 amount, uint256 index) internal returns(uint256){\n         \n        uint256 user_index = stakes[msg.sender];\n        Stake memory current_stake = stakeholders[user_index].address_stakes[index];\n        require(current_stake.amount >= amount, \"Staking: Cannot withdraw more than you have staked silly billy\");\n\n         \n         uint256 reward = calculateStakeReward(current_stake);\n         \n         current_stake.amount = current_stake.amount - amount;\n         \n         if(current_stake.amount == 0){\n             delete stakeholders[user_index].address_stakes[index];\n         }else {\n             \n             stakeholders[user_index].address_stakes[index].amount = current_stake.amount;\n            \n            stakeholders[user_index].address_stakes[index].since = block.timestamp;    \n         }\n\n         return amount+reward;\n\n     }\n\n     \n    function hasStake(address _staker) public view returns(StakingSummary memory){\n        \n        uint256 totalStakeAmount; \n       \n        StakingSummary memory summary = StakingSummary(0, stakeholders[stakes[_staker]].address_stakes);\n        \n        for (uint256 s = 0; s < summary.stakes.length; s += 1){\n           uint256 availableReward = calculateStakeReward(summary.stakes[s]);\n           summary.stakes[s].claimable = availableReward;\n           totalStakeAmount = totalStakeAmount+summary.stakes[s].amount;\n        }\n       \n       summary.total_amount = totalStakeAmount;\n        return summary;\n    } \n\n    struct StakeStruct {\n       uint256 _amount;\n       uint256 index;\n       uint256 timestamp;\n     }\n\n     function getMyStakes() public view returns (StakeStruct[] memory) {\n        return transactions;\n    }\n\n     \n  \n}",
  "sourcePath": "/Users/dhsu47389hjhd9/pulseog_staking_readout_copy /contracts/Stakeable.sol",
  "compiler": {
    "name": "solc",
    "version": "0.8.9+commit.e5eed63a.Emscripten.clang"
  },
  "schemaVersion": "3.4.6",
  "updatedAt": "2022-06-18T00:51:47.266Z",
  "devdoc": {
    "kind": "dev",
    "methods": {},
    "version": 1
  },
  "userdoc": {
    "kind": "user",
    "methods": {},
    "version": 1
  }
}